:020000040800F2
:1000000048050020A10100089F1E0008B91A000839
:100010009D1E0008B50200086D25000800000000C4
:100020000000000000000000000000004D2000085B
:100030005903000800000000A11E00084F2000081E
:10004000BB010008BB010008BB010008BB010008A0
:10005000BB010008BB010008BB010008BB01000890
:10006000BB010008BB010008BB010008BB01000880
:10007000BB010008BB010008BB010008BB01000870
:10008000BB010008BB010008BB010008BB01000860
:10009000BB010008BB010008BB010008BB01000850
:1000A000BB010008BB010008BB010008BB01000840
:1000B000BB0100080000000000000000BB010008B8
:1000C000BB0100080000000000000000BB010008A8
:1000D00000000000BB010008BB0100080000000098
:1000E000BB010008BB010008000000000000000088
:1000F0000000000000000000000000000000000000
:10010000000000000000000000000000BB0100082B
:100110000000000000000000BB010008BB01000857
:10012000BB010008BB010008BB010008BB010008BF
:10013000BB010008000000000000000000000000FB
:10014000BB010008BB010008BB010008BB0100089F
:10015000BB010008BB010008BB010008BB0100088F
:10016000BB010008BB010008BB0100080000000043
:10017000BB010008BB0100080000000000000000F7
:10018000BB010008BB010008BB010008DFF80CD070
:1001900000F07EF80048004741270008480500208D
:1001A0000648804706480047FEE7FEE7FEE7FEE711
:1001B000FEE7FEE7FEE7FEE7FEE7FEE7FD200008BC
:1001C0008D0100082DE9F05F0546002092469B4610
:1001D00088460646814640241BE02846414647465D
:1001E000224600F044F853465A46C01A914110D3B3
:1001F00011461846224600F02BF82D1A67EB01082D
:100200004F4622460120002100F022F817EB00099A
:100210004E41201EA4F10104DFDC484631462A4647
:10022000434600F000B830BCBDE8C09FD2B201E048
:1002300000F8012B491EFBD270470022F6E710B5EB
:1002400013460A4604461946FFF7F0FF204610BD44
:10025000202A04DB203A00FA02F100207047914086
:10026000C2F1200320FA03F3194390407047202A7B
:1002700004DB203A21FA02F00021704721FA02F350
:10028000D040C2F120029140084319467047000057
:10029000064C074D06E0E06840F0010394E80700D3
:1002A00098471034AC42F6D3FFF774FFC827000814
:1002B000E8270008FEE700001FB500210391102386
:1002C000022203A98DE80E00024605480123018899
:1002D000044800F0DDFCBDF80C0004B010BD0000C7
:1002E000060000207C0000200E48016821F080718B
:1002F0000160016841F0807101600B48016821F0E4
:1003000001010160016841F00101016000214160CB
:1003100000BF00BF00BF406808B100207047012047
:1003200070470000FCED00E0001000E031B5084D22
:100330006C6801F039F80749B0FBF1F000994843C7
:10034000009068680099001B8842FAD338BD00000D
:10035000001000E040420F00704700002DE9F84F08
:1003600000270446009790F85000DFF8B0930D4640
:10037000B846012811D0012684F85060206801F0A9
:10038000BBFC60B1606D40F0200060655FF001076C
:1003900084F85080384600F0D7B90220FBE768683F
:1003A0000C23052812D8022807D0032807D00428D8
:1003B00007D0052807D0062007E06B6006E0122072
:1003C00003E0182001E04FF480706860D5E9002157
:1003D000206803EA91131844036B01F01F014FF0EA
:1003E0001F0C0CFA01FCC2F3846223EA0C038A405E
:1003F00013430363206801F07FFC8246206801F00C
:1004000077FC5AEA00001DD1AA682968206801F02B
:1004100077FC20686969C268C2F3C102520091404A
:100420002A69042A0FD000EB82002B68026EDFF8E5
:10043000F0C203F0F84302EA0C020B431A4342F005
:100440000041016672E0002101F04CFC400320688D
:100450004FF0000172D001F045FC90FAA0F0B0FA24
:1004600080F1286842036ED090FAA0F0B0FA80F0D4
:10047000814204D100221146206801F050FC012184
:10048000206801F02FFC400320684FF001015DD08F
:1004900001F028FC90FAA0F0B0FA80F1286842033D
:1004A00059D090FAA0F0B0FA80F0814204D1002235
:1004B0000121206801F033FC0221206801F012FCC8
:1004C000400320684FF0020148D001F00BFC90FA85
:1004D000A0F0B0FA80F12868420344D090FAA0F06E
:1004E000B0FA80F0814204D100220221206801F09C
:1004F00016FC0321206801F0F5FB400320684FF053
:10050000030133D001F0EEFB90FAA0F0B0FA80F1D5
:10051000286842032FD090FAA0F0B0FA80F0814210
:1005200004D100220321206801F0F9FB20688168D2
:1005300011F0010F22D0ACE000E004E001F0D2FBAA
:10054000C0F384618DE7C0F3846091E701F0CAFBDA
:10055000C0F38461A2E7C0F38460A6E701F0C2FBA8
:10056000C0F38461B7E7C0F38460BBE701F0BAFB76
:10057000C0F38461CCE7C0F38460D0E72A7B2968AC
:1005800050F8B03FC1F3120C23EA0C0302F0180C30
:10059000644A22FA0CF20A4013430360E9684945B1
:1005A00077D1286841031CD090FAA0F1B1FA81F10B
:1005B000491C01F01F0109294FEA403132D80029B6
:1005C00012D000BF90FAA0F1B1FA81F101F101015E
:1005D00001F01F0106FA01F609D100BFC0F38461E2
:1005E00009E0C0F38461E3E7C0F38461EEE790FAC9
:1005F000A0F1B1FA81F101F1010101F01F0146EA18
:10060000816102D1C0F3846003E090FAA0F0B0FAF7
:1006100080F000F1010000F01F0000EB400041EA13
:10062000005132E000290ED090FAA0F1B1FA81F128
:1006300001F1010101F01F0106FA01F606D100BF28
:10064000C0F3846106E0C0F38461F1E790FAA0F1A1
:10065000B1FA81F101F1010101F01F0146EA816166
:1006600002D1C0F3846003E090FAA0F0B0FA80F009
:1006700000F1010000F01F002B4A00EB400002EBEC
:10068000005041EA000141F00071AA68206801F0C1
:1006900037FB26482A6802423FF47AAE2448816834
:1006A000244D254B01F0E071AA421AD10D0218D455
:1006B00022689A427FF46CAE826841F4000122F015
:1006C000E0720A4382601D481D490068B0FBF1F0EA
:1006D00000EB4000800000E0401E00900028FBD1AD
:1006E00056E6184DAA4207D1CD0105D422689A4298
:1006F000F6D141F080710AE06FF00045EA42EFD197
:100700004A02EDD422689A42EAD141F4800182681B
:1007100022F0E0720A4382603AE6000000007F4067
:1007200000F0FF03FFFF0700000020FE000008802C
:1007300000030450000052C70000045014000020C1
:10074000400D0300000084CB18BCBDE8E08F000022
:10075000F8B54FF0000504002E46009502D0606DFC
:1007600010B107E00120F8BD204600F0C7F8A665EB
:1007700084F8506020688168C1F3407119B18168C4
:10078000564A1140816020688168C1F3007179B9CF
:100790008168534A114041F080518160514852496B
:1007A0000068B0FBF1F000E0401E00900028FBD193
:1007B00020688168C1F3007141B9616D41F0100199
:1007C0006165A16D41F00101A165012501F094FA77
:1007D000616DC90600D430B1606D40F010006065F5
:1007E00001252846F8BD606D20F4807040F00200BD
:1007F00060652068806810F0010F0BD13B4880686D
:1008000010F0010F06D13A486168826822F47C1228
:100810000A438260E168606B627E0843A16841EA36
:100820004231084394F8201040EA0140012904D1E4
:10083000A18C304A02EB41410843A16A29B101F47D
:100840007071E26A014342EA01002168CA682A4BDA
:100850001A400243CA60206801F04EFA064620683A
:1008600001F046FA304315D1207E94F83010800311
:1008700040EA41022068C16844F2020399431143EF
:10088000C16094F8380001280CD02068016921F07B
:1008900001010161206901282068016B21F00F012D
:1008A00011D013E0D4E90F010843D4E91112114328
:1008B000084321680A6940F2FC739A43104340F0F0
:1008C00001000861E6E7E269521E11430163606DB1
:1008D00020F0020040F00100606582E7C0FFFF5F8A
:1008E000C0FFFF7F14000020400D030000000450F3
:1008F000000304500000FEFF07C0F0FF10B586B0F3
:10090000044614216846FFF798FC11492068884284
:100910001BD11048C16C41F40051C164C16C01F499
:1009200000510591C16C41F00101C164C06C694680
:1009300000F001000590C62000900B2001900020DF
:1009400002904FF0904000F019F806B010BD000082
:10095000000004500010024070B5044600F0E2F8B8
:100960000546601C02D004484068044400F0DAF8F0
:10097000401BA042FAD370BD080000202DE9F84FBB
:10098000DFF870B1002301274FF0030A4FF00F0981
:100990000BF1040EA7E000BF07FA03F6324070D057
:1009A0004C68022C01D0122C10D1DC0800EB84081A
:1009B000D8F820405D074FEAD56C09FA0CF5AC4336
:1009C0000D6905FA0CF52543C8F82050D0F80080D1
:1009D0005D0091F804C00AFA05F40CF0030C28EA53
:1009E00004080CFA05FC4CEA080CC0F800C0D1F869
:1009F00004C0BCF1010F08D0BCF1020F05D0BCF15E
:100A0000110F02D0BCF1120F16D1D0F808C0D1F8E6
:100A10000C802CEA040C08FA05F848EA0C08C0F827
:100A20000880D0F804C02CEA060C0E79C6F3001634
:100A30009E4046EA0C064660C668A6438C68AC40F9
:100A40003443C4604C68E4004CD52B4C256E45F013
:100A500001052566246E23F0030504F001040094CB
:100A6000264C2E19B4689D074FEA157C09FA0CF53F
:100A7000AC43B0F1904F05D0214DA84204D10125DF
:100A800008E02FE0002505E01E4DA84201D1022517
:100A900000E0072505FA0CF52543B560DBF80040BA
:100AA0005D464E689443F60300D514432C60DEF88F
:100AB000004075464E689443B60300D514432C603D
:100AC0000C4D08352C684E689443F60200D514434B
:100AD0002C60084D0C352C684E689443B60200D546
:100AE00014432C605B1C0A6832FA03F47FF454AFA1
:100AF00000F00AB80004014000100240000001406C
:100B0000000400480008004818BCBDE8E08F0069F8
:100B1000084000D0012070470AB1816170478162AE
:100B200070470000014880687047000008000020FE
:100B300090F84120202A24D190F84020012A20D08A
:100B4000012280F84020242280F8412002681368A6
:100B500023F0010313600268136823F480531360C9
:100B6000026813680B43136001680A6842F00102CF
:100B70000A60202180F84110002180F840100846CA
:100B800070470220704790F84120202A22D190F827
:100B90004020012A1ED0012280F84020242280F823
:100BA00041200268136823F0010313600268136890
:100BB00023F4706343EA0121116001680A6842F07E
:100BC00001020A60202180F84110002180F84010C5
:100BD000084670470220704770B5040004D094F8AE
:100BE0004100002510B106E0012070BD84F840509E
:100BF000204600F003F9242084F8410020680168B1
:100C000021F0010101606068216820F070600861D6
:100C10002068816821F400418160E0680128A068B3
:100C200007D040F4044021688860E068022803D0BF
:100C300006E040F40040F6E721684FF400604860A9
:100C400020684168114A114341602068C16821F45D
:100C50000041C160D4E904010843A16940EA0120D0
:100C60002168C860D4E9070108432168086020684A
:100C7000016841F0010101606564202084F84100B1
:100C8000256384F84250002070BD000000800002FF
:100C90002DE9FF4F83B00446DDE9108790F841004D
:100CA000DDF848909A469346202874D15FEA080000
:100CB00014D09FB194F8400001286CD0012084F832
:100CC0004000FFF72FFF0646012200901923D103B1
:100CD000204600F08DFF002871D103E04FF4007032
:100CE00060646CE0222084F84100402084F84200D7
:100CF00000256564C4F8248067856563CDE90096A6
:100D000053465A462046049900F02AFF10B184F851
:100D1000405054E0618D3548FF274FF080784FF008
:100D2000007AFF2904D927853A464346009005E01A
:100D3000618D2185009094F828205346204604991F
:100D400000F040FF4B46002204212046009600F0B0
:100D50004FFFA0BB2068406A616A0870606A401C4F
:100D60006062208D401E81B22185608D401E6085AD
:100D7000608DD8B1D1B94B46002280212046009623
:100D800000F036FFD8B9608DFF2805D927853A468F
:100D90004346009506E026E0608D2085009594F896
:100DA000282053462046049900F00CFF608D00284F
:100DB000C8D132464946204600F046FF18B101200E
:100DC00007B000F017B821682020C86121684A6880
:100DD000074B1A404A6084F8410084F8425084F876
:100DE00040500020ECE70220EAE7000000240080E9
:100DF00000E800FE30BCBDE8C08F000010B586B032
:100E0000044614216846FFF718FA12492068884200
:100E10001ED1114CE06C40F00200E064E06C6946C9
:100E200000F002000590C0200090122001900120E7
:100E3000029003200390042004900848FFF79EFDD1
:100E4000A06D40F40010A065A06D00F400100590A6
:100E500006B010BD005400400010024000040048DD
:100E60000248816842681144816070470800002090
:100E700010B50024032000F063F8002000F008F80B
:100E800008B1012401E000F025F8204610BD000063
:100E900070B50E4E05460024706898B14FF47A7113
:100EA000B1FBF0F00A490968B1FBF0F000F08AFDEF
:100EB00040B9102D06D200222946501E00F020F81D
:100EC000356000E00124204670BD000008000020CD
:100ED00014000020094808B5016E41F001010166C7
:100EE000016E01F001010091816D41F08051816539
:100EF000806D00F08050009008BD0000001002409E
:100F0000F0B40E4B1B680C46C3F30223C3F1070574
:100F1000042D00D90425191D072901D2002300E062
:100F2000DB1E012606FA05F1491E214099409E402C
:100F3000761E16403143F0BC01F019BB0CED00E009
:100F4000064900F0070208684FF6FF03184040EA20
:100F50000220034A10430860704700000CED00E0D7
:100F60000000FA051649B0F5007F0868C0F341207B
:100F700009D0022805D0086820F4C06040F48060E1
:100F80000860002070470128FBD0086820F4C0608A
:100F900040F4007008600B483222006850430A4A4F
:100FA000B0FBF2F0401C00E0401E4A69520501D53A
:100FB0000028F9D148694005E3D5032070470000B7
:100FC000007000401400002040420F0002480068FA
:100FD00000F4C060704700000070004002480168E3
:100FE00041F4807101607047007000400248016860
:100FF00041F0040101607047001002402DE9F84FF4
:101000000446002700889C4D3E46000515D5E06B40
:1010100060B1B0F5000F04D0B0F5400F2BD0012720
:101020000AE0E86840F48030E86024E00021201DF8
:1010300000F038FF07001ED03E462068800338D5F8
:10104000A86D4FF00008C00009D4A86D40F0805092
:10105000A865A86D4FF0010800F080500090DFF8FF
:101060001CA2DAF8001041F48071CAF80010FFF7F2
:1010700059FD814610E0D5F88800E16B20F440006E
:101080000843C5F88800D8E7FFF74CFDA0EB09003E
:10109000022801D9032704E0DAF80000C005F3D5DF
:1010A000EFB33E46B8F1000F03D0A86D20F080509A
:1010B000A8652078C00707D0D5F88800216A20F0FD
:1010C00003000843C5F888002078800707D5D5F8C5
:1010D0008800616A20F00C000843C5F88800207879
:1010E000800607D5D5F88800A16A20F4406008433F
:1010F000C5F888002088800507D5D5F88800616B81
:1011000020F440200843C5F888002088400509D510
:10111000D5F88800A16B20F44010084300E02EE0D1
:10112000C5F888002078400607D5D5F88800E16A20
:1011300020F440500843C5F888002088C00507D532
:10114000D5F88800216B20F440300843C5F88800AA
:1011500020884FF0006780044FF080684ED5D5F8A6
:101160008800216C20F040600843C5F88800206C9E
:10117000B8423BD1E86840F48010E8603EE0D5F822
:10118000900010F4407014D0216D814211D0D5F838
:101190009000D5F8901020F4407041F48031C5F8EB
:1011A0009010D5F8901021F48031C5F89010C5F852
:1011B0009000C00711D0FFF7B5FC074641F288390F
:1011C00007E000BFFFF7AEFCC11B494501D903266C
:1011D00068E7D5F890008007F4D5D5F89000216D28
:1011E00020F440700843C5F890005BE7404505D106
:1011F0000121201D00F056FE00B106462068400384
:1012000017D5D5F88800616C20F040600843C5F818
:101210008800606CB84204D1E86840F48010E8604F
:1012200007E0404505D10121201D00F03BFE00B143
:1012300006462088400411D5D5F88800A16C20F01E
:1012400040500843C5F88800A06CB0F1805F05D11C
:101250000221201D00F026FE00B106462088000471
:1012600006D555F8880FE16C20F0804008432860CF
:10127000304600F005B80000001002400070004049
:1012800018BCBDE8E08F00002DE9F0470F460500CF
:1012900058D0404E306800F00700B84209D230689C
:1012A00020F0070038433060306800F00700B84293
:1012B00048D12878384CC0072CD06868032811D052
:1012C000022812D0216898B1490500293ADAA168AC
:1012D00021F003010143A160FFF724FC804641F2A5
:1012E000883910E021688901EFE721688903ECE77C
:1012F0008907EAE7FFF716FCA0EB0801494502D988
:101300000320BDE8F087A068696800F00C00B0EB2E
:10131000810FEFD12878800705D5A068A96820F053
:10132000F0000843A060306800F00700B8420BD915
:10133000306820F0070038433060306800F0070064
:10134000B84201D00120DCE72878400705D5A06825
:10135000E96820F4E0600843A0602878000706D51B
:10136000A068296920F4605040EAC100A06000F044
:1013700045F8A168094AC1F30311515C01F01F014E
:10138000C8400749086007480068BDE8F047FFF714
:101390007FBD0000002002400010024080270008AE
:1013A0001400002008000020014800687047000079
:1013B000140000200548064900688968054AC1F301
:1013C0000221515C01F01F01C84070471400002049
:1013D00000100240C02700080548064900688968D7
:1013E000054AC1F3C221515C01F01F01C84070479A
:1013F0001400002000100240C027000870B52549E5
:10140000002318468A68CC6812F00C0204F0030628
:10141000214C4FEA640509D00C2A05D0042A32D0A9
:10142000082A00D1284670BD012E10D10B681B0779
:1014300004D4D1F89430C3F3032302E00B68C3F360
:101440000313164E56F82330DAB10C2AEBD1C868D4
:1014500000F00300022818D0032818D01846CA68E4
:10146000CB68C2F30212C3F306234343521CB3FBFF
:10147000F2F2C868C0F34160401C4000B2FBF0F0DB
:1014800070BD184670BD204670BD2046E7E728466F
:10149000E5E70000001002400024F4009027000857
:1014A0002DE9F84304006ED0FD4DA86800F00C064D
:1014B000E86800F003072078C00663D576B10C2EEB
:1014C00001D1012F0AD0A0690028286878D040F007
:1014D00001002860FFF726FB80465BE02868800754
:1014E00002D5A0690028DED0216A2868000703D54C
:1014F000286800F0F00004E0D5F89400F02202EA39
:101500001010814216D9084600F062FD00283AD139
:10151000286840F0080028602868216A20F0F00060
:10152000084328606868E16920F47F4040EA0120B0
:10153000686015E0286840F0080028602868216A83
:1015400020F0F000084328606868E16920F47F40DB
:1015500040EA01206860206A00F03AFD0028D6D1F8
:10156000FFF74CFFA968CF4AC1F30311515C01F0AA
:101570001F01C840CC490860CC480068FFF788FCD0
:1015800000287DD12DE0C9E0FFF7CCFAA0EB0800E0
:10159000022876D828688007F6D5286840F0080029
:1015A00028602868216A20F0F000084328606868F5
:1015B000E16920F47F4040EA0120686011E0FFE724
:1015C00020F001002860FFF7ADFA804606E000BF7A
:1015D000FFF7A8FAA0EB08000228DAD828688007ED
:1015E000F6D42078C00740D0082E18D00C2E01D198
:1015F000032F14D06068B0F5803F17D0B0F5A02F4E
:10160000286817D020F480302860286820F48020D3
:1016100028606068E0B1FFF785FA804614E028682A
:10162000800322D56068002878D01EE0286840F446
:101630008030EDE740F480202860F7E7FFF772FA8A
:10164000A0EB08006428A4D828688003F6D50CE035
:10165000FFF768FA804605E0FFF764FAA0EB0800A0
:10166000642896D828688003F6D4207880073BD574
:10167000042E11D00C2E01D1022F0DD0E06801E014
:1016800064E1B8E0002828681ED040F4807028602B
:10169000FFF748FA07460CE0286840050CD5E068DB
:1016A0000028C1D008E000BFFFF73CFAC01B0228A9
:1016B00093D828684005F7D56868217C20F0F85059
:1016C00040EA016068600FE020F480702860FFF756
:1016D00029FA074605E000BFFFF724FAC01B0228DD
:1016E000B1D828684005F7D42078000729D560696B
:1016F0000028D5F8940012D040F00100C5F89400FD
:10170000FFF710FA074604E0FFF70CFAC01B0228A7
:1017100071D8D5F894008007F6D512E04CE120F09E
:101720000100C5F89400FFF7FDF9074605E000BF8A
:10173000FFF7F8F9C01B02285DD8D5F894008007A0
:10174000F6D42078400766D5A86D0027C00008D4DD
:10175000A86D40F08050A865A86D012700F080506A
:10176000009053480168C90512D40168814641F4CC
:1017700080710160FFF7D6F9804605E0FFF7D2F9E6
:10178000A0EB0800022836D8D9F80000C005F5D52E
:10179000A068012816D00528D5F8900017D020F0B1
:1017A0000100C5F89000D5F8900020F0040000BFBB
:1017B000C5F89000A06841F28839C0B1FFF7B2F9CE
:1017C00080460FE0D5F8900040F00100F0E740F0CF
:1017D0000400C5F89000F5E7FFF7A4F9A0EB0801B5
:1017E000494508D8D5F890008007F5D50EE0FFF7F9
:1017F00099F9804606E07CE0FFF794F9A0EB080138
:10180000494576D8D5F890008007F5D41FB1A86D6A
:1018100020F08050A8652078800628D5606A0028CE
:10182000D5F8980012D040F00100C5F89800FFF7F5
:1018300079F9074605E000BFFFF774F9C01B0228DD
:1018400057D8D5F898008007F6D510E020F00100B1
:10185000C5F89800FFF766F9074604E0FFF762F95C
:10186000C01B022871D8D5F898008007F6D4A06A6A
:10187000F0B30C2E71D00228286820F08070286008
:101880001AD02868000103D4E86820F00300E8605B
:10189000E86808490840E860FFF744F9044657E063
:1018A00000100240802700081400002008000020DB
:1018B00000700040FFFFEEFEFFF734F9064604E03B
:1018C000FFF730F9801B02283FD828688001F7D441
:1018D000F4E90B016FF00F0202EB01110843218ABA
:1018E0004908520402EB4151A26841EA022101E099
:1018F00064E02AE00843217D4FF07E42490802EB74
:1019000041610843217B40EAC160E9682C4A1140EB
:101910000843E860286840F080702860E86840F07C
:101920008070E860FFF7FEF8044604E0FFF7FAF87D
:10193000001B022809D828688001F7D53EE000BFC7
:10194000FFF7F0F8001B022802D90320BDE8F88356
:1019500028688001F4D431E0FFE70128F6D0E86878
:10196000E26A00F00301914226D1216B00F070027F
:101970000901103991421FD1626B00F4FE41B1EBB5
:10198000022F19D194F8382000F07841B1EBC26FE2
:1019900012D1A18F00F4C00249084905A1F5001138
:1019A000914209D194F8401000F0C06049084906FE
:1019B000A1F10071814201D00120C7E70020C5E7F5
:1019C0008C809D0110B5401EB0F1807F01D30120B5
:1019D00010BD4FF0E02460610F21601700F0C7FDDB
:1019E0000020A06107202061002010BD10B5040078
:1019F00002D0606F10B107E0012010BD002084F814
:101A00007000204600F026F82420606720680168F6
:101A100021F001010160204600F05EFC0128ECD0BD
:101A2000606A10B1204600F0C7FB2068416821F4CD
:101A3000904141602068816821F02A01816020681E
:101A4000016841F0010101602046BDE8104000F04E
:101A500017BC000010B586B0044614216846FEF796
:101A6000ECFB13492068884220D11248016E41F4F2
:101A700080410166016E01F480410591C16C41F025
:101A80000101C164C06C694600F0010005904FF48B
:101A9000C06000900220019000200290032003907B
:101AA000072004904FF09040FEF768FF06B010BD8D
:101AB0000038014000100240FEE701688A69D24305
:101AC000920701D400228A6200688169C943C9076C
:101AD00003D0816941F00101816170472DE9F04136
:101AE0000446006890460E468069C043C00633D461
:101AF0000025202720688069C043800615D5701C0A
:101B0000F8D0FFF70FF8A0EB0800B04201D8002E84
:101B1000F0D154F8440F40F0200044F804096770F5
:101B2000A57025700120BDE8F08121681020C861F2
:101B30002068C7612046FFF7C0FF54F8440B416896
:101B4000064A11404160206840F0040044F8200932
:101B50006777A5772577E5E70020E4E700E800FE52
:101B60002DE9F84304461646DDE9089714489846DF
:101B7000DAB200900023204600F024F83A464946A5
:101B8000204600F087F8B8B9F5B2B8F1010F08D0D7
:101B90002168300A88623A464946204600F07AF8C1
:101BA00050B9206885624B460022402120460097AC
:101BB00000F01EF8002800D00120BDE8F8830000E6
:101BC00000200080F0B50568059C68684FF48066C9
:101BD000064FC1F3090106EA545641EA02413E4369
:101BE0001943B043214308436860F0BDFF63FF031E
:101BF0002DE9F0411D4617460E460446DDF81880D3
:101C000008E0681C06D0FEF78DFFA0EB0800A84294
:101C10000BD855B12068806936EA000012D0002048
:101C2000B842EED00020BDE8F08154F8440F40F0F7
:101C3000200044F80409202060700020A07020706B
:101C40000120F0E70120EBE770B516460D4604468B
:101C50000DE0324629462046FFF740FF08B101203B
:101C600070BDFEF75FFF801BA84207D835B1206822
:101C70008069C0438006ECD4002070BD54F8440F46
:101C800040F0200044F80409202060700020A0707B
:101C90002070E4E770B516460D4604460FE0324664
:101CA00029462046FFF71AFF08B1012070BD681CC5
:101CB00005D0FEF737FF801BA84207D835B1206852
:101CC0008069C0438007EAD4002070BD54F8440FF7
:101CD00040F0200044F80409202060700020A0702B
:101CE0002070E2E700EB8100006E00F0F8407047E2
:101CF0008068C0F3C00070478068C0F38000704700
:101D0000042303EAD15310B518444369C1F30451C5
:101D100007248C40A3438A401343436110BD00EB6A
:101D20008100016E21F000411143016670470000FF
:101D300030B587B018216846FEF77FFA144813497A
:101D40000024C0E9001484600425C460C0E904458F
:101D5000047644760121C16180F820408462C46227
:101D600080F83040446380F83840FEF7F1FC0948C1
:101D700000900620CDE9010407480594CDE903054C
:101D800069460348FEF7EAFA07B030BD0000045088
:101D9000180000200008302E00007F40F0B587B00A
:101DA00014216846FEF749FA1E48C16C41F004014F
:101DB000C164C16C01F004010591C16C41F00101E5
:101DC000C164C16C01F001010591C16C41F00201D7
:101DD000C164C06C4FF4807600F002004FF0904771
:101DE0000590002231463846FEF796FE0024012574
:101DF000CDE90054694638460294FEF7BFFD022043
:101E0000CDE90004694608480294FEF7B7FD009644
:101E1000CDE90154694638460394FEF7AFFD07B09B
:101E2000F0BD000000100240000400480E4810B54C
:101E30000C4901600D49416000210122C0E90212F4
:101E4000016141618161C1610162FEF7C5FE00214E
:101E50000548FEF76DFEBDE8104000210248FEF780
:101E600092BE0000005400407C000020EC9C9010CA
:101E70000948084901604FF4E13141600021816067
:101E80000C22C160C0E904128161C161016241623A
:101E9000FFF7ACBD00380140C8000020FEE77047E6
:101EA000704700002DE9F041444C05468846E06843
:101EB0000026810728680DD0E16801F00301814206
:101EC00016D1A8B1E0686968C0F30210401C8842CE
:101ED0000ED120E0012804D0022805D0032807D124
:101EE00008E02168890701E021684905002907DB2E
:101EF00001265FE02168890302D421684903F5E7E0
:101F0000E1686A686FF00F0321F0730103EB0212BE
:101F100011430143E160206820F080602060FEF7FB
:101F200001FE074605E000BFFEF7FCFDC01B0228CE
:101F300037D820680001F7D4B8F1000F18D0B8F1F5
:101F4000010F1DD0287D4FF07E41400801EB40601D
:101F5000A96840EA01202169194A1140084320611B
:101F6000206840F080602060FEF7DCFD07461AE044
:101F7000A868297B000240EAC1602169114AECE7A8
:101F8000288A1149400801EB4050A96840EA012025
:101F900021690E4AE1E700BFFEF7C4FDC01B02281D
:101FA00001D9032606E020680001F5D52069A9695A
:101FB000084320613046BDE8F08100000010024077
:101FC000FF80FFF9FF80FF070000E0FFFF809FFF19
:101FD000F8B51C4D06460024A86DC00002D5FEF7DA
:101FE000F5FF0DE0A86D40F08050A865A86D00F0E9
:101FF00080500090FEF7EAFFA96D21F08051A9659D
:10200000B0F5007F04D0802E07D94FF003040AE01A
:10201000802E08D9A02E01D804E001D1022402E0CC
:10202000702E00D101240848016821F007012143E6
:102030000160006800F00700A04201D00120F8BD57
:102040000020F8BD00100240002002407047FEF75B
:1020500007BF0000F0B5ABB0442115A8FEF7EDF8BE
:10206000142126A8FEF7E9F854216846FEF7E5F8A2
:10207000FEF7B4FF204850F8901F21F018010160CE
:1020800014201590602001241D900025179402262D
:10209000CDE91B45CDE91F640727CDE9237628202C
:1020A0002596CDE9214015A8FFF7FAF90F202690D3
:1020B0000320CDE927052995042126A82A95FFF7B5
:1020C000E3F844F2410000900895000712901020B8
:1020D000CDE902400B9501940005CDE90660CDE9FC
:1020E00004766846FEF78AFF6002FEF73BFFFEF7C4
:1020F0007DFF2BB0F0BD0000001002400D480168CC
:1021000041F4700101600C48016841F00101016077
:10211000002181600268094B1A4002608214C2608B
:10212000026822F48022026081610249C003803982
:102130000860704788ED00E000100240FFFFF6EAFB
:1021400070B50646342000F033F860F31F443620A3
:1021500000F02EF860F30F05382000F029F860F346
:102160001F453A2000F024F860F30F040F48007870
:10217000EB2812D005DCB0B1C02812D0D52809D187
:102180000DE0F62803D0FF2804D1032000E018203A
:10219000FEF7E2FB3560746070BD3220F8E7652021
:1021A000F6E79A20F4E74FF42F70F1E704000020DF
:1021B00040F08000FEF780B890F82410C90706D0E0
:1021C00001684A68836A22F400321A434A6090F830
:1021D0002410890706D501684A68C36A22F4803250
:1021E0001A434A6090F82410490706D501684A68E6
:1021F000036B22F480221A434A6090F824100907E6
:1022000006D501684A68436B22F400421A434A60CB
:1022100090F82410C90606D501688A68836B22F4F9
:1022200080521A438A6090F82410890606D5016806
:102230008A68C36B22F400521A438A6090F8241013
:10224000490611D501684A68036C22F480121A43CA
:102250004A60016CB1F5801F06D101684A68436C81
:1022600022F4C0021A434A6090F82410090606D5E9
:1022700001684A68806C22F4002202434A60704779
:10228000F8B500260446C667FEF74CFC05462068F4
:1022900000686FF07E47000708D52B4600224FF4F8
:1022A00000112046009700F031F960B920680068FD
:1022B00040070AD52B4600224FF4800120460097A4
:1022C00000F024F908B10320F8BD20206067A06762
:1022D00084F870600020F8BD2DE9F04104460268E2
:1022E00080682369E5691843636900272B43184315
:1022F0007D4913687D4D2B4003431360206842687D
:10230000E36822F440521A4342602268A0698A427C
:1023100001D0236A1843936823F430630343936026
:10232000734A2368734893420DD1D0F8880010F0A7
:10233000030006D0012838D0022834D0032821D148
:1023400035E001251FE06C4A93420BD1D0F888009C
:1023500010F00C0025D0042827D0082823D00C2802
:1023600010D124E08B420DD1D0F8880010F44060E9
:1023700017D0B0F5806F18D0B0F5006F13D0B0F55E
:10238000406F14D010255D4A00264FF400408B4268
:1023900045D175B1022D0FD0042D0FD0082D18D1C5
:1023A0000FE00025EFE70225EDE70425EBE7082520
:1023B000E9E7FEF7FFFF03E0104602E0FFF71EF833
:1023C000A8B3626802EB4201814202D8B0EB023F3F
:1023D00001D9012775E0DFF828815DB1022D0CD00D
:1023E000042D13D0082DF4D150082905401846F1CA
:1023F000000105E0FEF7DEFF0AE050084149F5E77D
:102400000023FDF7DFFEA0F5407156E0FEF7F6FF72
:102410006268010E0302500818187141F0E7E16983
:102420004FF6EF7881422FD1092DD2D200E048E05B
:10243000DFE805F006092005230505052600C8E7A5
:10244000FEF7B8FF01E0FEF7C7FF4100D4F8040033
:1024500001EB5001B1FBF0F080B2A0F11001414559
:10246000B7D84FF6F0710140C0F342000143206835
:10247000C16026E024496068EAE7FEF7BFFFE4E7B1
:102480004FF480316068E3E7092DA2D2DFE805F060
:1024900006091E052205050525009AE7FEF78AFFB5
:1024A00001E0FEF799FF0146606801EB500100BFB3
:1024B000B1FBF0F080B2A0F11001414589D821684C
:1024C000C860266638466666BDE8F081606802EB43
:1024D0005001EDE7FEF792FFE5E7616800EB510080
:1024E000B0FBF1F0E6E7000000800040F369FFEF89
:1024F0000038014000100240004400400024F40075
:10250000FFFC0F00000024F40048E8012DE9F04131
:10251000984617460E460446069D08E0681C06D0FD
:10252000FEF700FBA0EB0800A8420BD855B12068CD
:10253000C06936EA000017D00020B842EED0002073
:10254000BDE8F0812068016821F4D0710160206845
:10255000816821F00101816020206067A067002070
:1025600084F870000320EBE70120E6E7FEE70907A7
:10257000090E002804DB00F1E02080F80014704709
:1025800000F00F0000F1E02080F8141D704702E019
:1025900008C8121F08C1002AFAD1704770470020EE
:1025A00001E001C1121F002AFBD170470348044912
:1025B0000078097800EB012080B27047000000200D
:1025C0000100002000B585B014216846FDF735FEF6
:1025D0000220009000200190029069460248FEF718
:1025E000CDF905B000BD00000004004800B585B07D
:1025F00014216846FDF721FE022000900120019081
:102600000020039069460248FEF7B8F905B000BD06
:102610000004004810B500F06BF800BF00F04AF865
:102620000028FBD100F018F80749087000F014F8F2
:102630000649087000F010F80549087000F00CF821
:102640000449087010BD00000100002000000020B7
:1026500003000020020000202DE9F0410024144F67
:10266000012602213846FEF752FA0028F9D0282028
:10267000FDF75CFE02213846FEF749FA90B1C4F13D
:10268000070106FA01F02843C5B202213846FEF7D9
:102690003EFA0028F9D1641CE4B2082CE1D32846A4
:1026A000BDE8F081C4F1070006FA00F08543ECE7CD
:1026B0000004004870B500242820FDF737FE0B4DBC
:1026C00002212846FEF723FA40B95020FDF72EFEDE
:1026D00002212846FEF71BFA30B1012402212846C8
:1026E000FEF715FA0028F9D1204670BD0004004815
:1026F00010B5FFF77BFF002202210548FEF70CFA18
:1027000044F25060FDF712FEBDE81040FFF75ABFDB
:102710000004004808480178084811F0800F00784C
:1027200006D021F0800100EB0120404200B270474A
:1027300000EB0120FAE7000001000020000000206B
:102740001CB5FEF795FBFDF7CFFDFFF783FCFFF708
:1027500025FBFFF7EDFAFFF769FBFFF789FB41F275
:10276000883400BFFFF756FFFFF720FFFFF7D2FFC7
:102770006846FFF7E5FC2046FEF7EEF8F2E70000BA
:102780000000000000000000010203040607080921
:10279000A0860100400D0300801A060000350C00E1
:1027A00040420F0080841E0000093D0000127A00A4
:1027B0000024F40000366E010048E801006CDC02E1
:1027C0000000000001020304E827000800000020C8
:1027D000180000008E2500080028000818000020BE
:1027E000300500009E250008000000000000520097
:1027F00010000000010000000000000000093D0082
:040000050800018D61
:00000001FF
