:020000040800F2
:1000000068050020A1010008D3270008C5230008C7
:10001000D1270008D90900081D2F000800000000A2
:10002000000000000000000000000000812900081E
:10003000D90A000800000000D5270008832900081D
:10004000BB010008BB010008BB010008BB010008A0
:10005000BB010008BB010008BB010008BB01000890
:10006000BB010008BB010008BB010008BB01000880
:10007000BB010008BB010008BB010008BB01000870
:10008000BB010008BB010008BB010008BB01000860
:10009000BB010008BB010008BB010008BB01000850
:1000A000BB010008BB010008BB010008BB01000840
:1000B000BB0100080000000000000000BB010008B8
:1000C000BB0100080000000000000000BB010008A8
:1000D00000000000BB010008BB0100080000000098
:1000E000BB010008BB010008000000000000000088
:1000F0000000000000000000000000000000000000
:10010000000000000000000000000000BB0100082B
:100110000000000000000000BB010008BB01000857
:10012000BB010008BB010008BB010008BB010008BF
:10013000BB010008000000000000000000000000FB
:10014000BB010008BB010008BB010008BB0100089F
:10015000BB010008BB010008BB010008BB0100088F
:10016000BB010008BB010008BB0100080000000043
:10017000BB010008BB0100080000000000000000F7
:10018000BB010008BB010008BB010008DFF80CD070
:1001900000F032FB00480047D14500086805002008
:1001A0000648804706480047FEE7FEE7FEE7FEE711
:1001B000FEE7FEE7FEE7FEE7FEE7FEE7312A00087E
:1001C0008D0100082DE9F05F0546002092469B4610
:1001D00088460646814640241BE02846414647465D
:1001E000224600F087F953465A46C01A914110D36F
:1001F00011461846224600F06EF92D1A67EB0108E9
:100200004F4622460120002100F065F917EB000956
:100210004E41201EA4F10104DFDC484631462A4647
:10022000434600F000B830BCBDE8C09FD2B201E048
:1002300000F8012B491EFBD270470022F6E710B5EB
:1002400013460A4604461946FFF7F0FF204610BD44
:100250002DE9FE4F81EA030404F0004421F000413F
:1002600000944FF0000B23F0004350EA01045ED0ED
:1002700052EA03045BD0C3F30A54C1F30A552C4479
:10028000A4F2F3340194A0FB0254C1F3130141F42E
:100290008011C3F3130343F4801301FB024400FBFA
:1002A000034E840A970A44EA815447EA8357A4FB21
:1002B000076802958D0A05FB07854FEA932C04FB1E
:1002C0000C542705029D4FEA065847EA1637B5EB4E
:1002D00008056EEB070C870E920E47EA811742EA7B
:1002E0008312A7FB0201B6EB0B0164EB00042B0D9C
:1002F00043EA0C335E1844EB1C50DA465146E7FBE8
:100300000201C5F313044FEA0B3343EA14534FEAD7
:100310000432019C43EA0603A4F10C040294009CFD
:10032000CDE900B400F03CF903B000F003B80020C0
:100330000146F9E730BCBDE8C08F2DE9F04D81EAF8
:10034000030404F0004B21F0004514464FF0000A6E
:1003500023F0004150EA050220D054EA01021DD0EA
:10036000C5F30A570246C5F31303C1F31300C1F3E3
:100370000A5640F4801543F48013A7EB0608101BBF
:10038000D64608F2FD3873EB050002D308F10108E8
:1003900001E092185B41B8F1000F03DA002001463A
:1003A000BDE8F08D00204FF48011064684460EE033
:1003B000171B73EB050705D3121B63EB05030643FD
:1003C0004CEA010C49084FEA300092185B4150EAB0
:1003D0000107EDD152EA030012D082EA040083EA59
:1003E0000501084305D0101BAB4106D201220023B2
:1003F00006E000224FF0004302E06FF001025310CC
:100400001AEB06004CEB085110EB0A0041EB0B0114
:10041000BDE8F04D00F0B5B80EB5C10F80EAE07050
:100420000844CA07002140F233438DE80E000A4613
:100430000B4600F0B5F803B000BD70B5C1F30A5229
:1004400001F000450024C1F3130140F2FF3341F4F1
:1004500080119A4201DA002070BD40F233439A4283
:10046000A2F2334203DC524200F044F800E0904034
:100470002C43F1D0404270BD00F0004230F000400B
:100480000AD0C10D01F56071C0F3160042EA0151B6
:10049000C20840071143704700200146704701F031
:1004A000004330B421F0004150EA010206D00A0DA9
:1004B000A2F56072C1F31301002A02DC30BC0020F7
:1004C0007047440F44EAC104C100E01830BC00EB9F
:1004D000C25000F01FB8202A04DB203A00FA02F1D3
:1004E000002070479140C2F1200320FA03F3194322
:1004F00090407047202A04DB203A21FA02F00021C4
:10050000704721FA02F3D040C2F120029140084323
:10051000194670470029A8BF7047401C490008BF12
:1005200020F00100704710B4B0FA80FC00FA0CF023
:1005300050EA010404BF10BC704749B1CCF120045B
:1005400021FA04F411FA0CF118BF012121430843E8
:10055000A3EB0C01CB1D4FEA00614FEA102042BF14
:10056000002010BC704700EBC35010440029A4BF0A
:1005700010BC7047401C490008BF20F0010010BCAF
:10058000704710B5141E73F1000408DA401C41F1E5
:10059000000192185B411A4301D120F0010010BD07
:1005A0002DE9F04D92469B4611B1B1FA81F202E07D
:1005B000B0FA80F220329046FFF78DFF04460F46D6
:1005C00040EA0A0041EA0B0153465A46084313D059
:1005D000114653EA010019D0C8F140025046FFF716
:1005E00089FF05460E46504659464246FFF773FFBF
:1005F000084305D0012004E020463946BDE8F08DCF
:100600000020054346EAE0762C4337430A98630509
:10061000E40AA0EB08000022FD0A44EA47540A302D
:1006200002D500200146E9E7010510196941DDE91D
:10063000084500196941BDE8F04DA2E72DE9FE4FDC
:10064000804681EA0300C00F0C46009021F0004173
:1006500023F00045B8EB0200A94105D240462146EF
:1006600090461C460B46024623F00040104347D0FC
:10067000270DC7F30A00C3F30A510290401A0190F4
:1006800040286BDAC3F3130040F4801B00989246B5
:1006900020B10023D2EB030A63EB0B0B0198594600
:1006A000C0F140025046FFF716FF06460D46504681
:1006B0005946019A00F0B2F810EB0800614100249D
:1006C00087EA115284EAE7731A4340D0009A62B372
:1006D000019A012A4FEA075215DC001B61EB020167
:1006E0004FF0004202EA0752CDE90042001C41F5FA
:1006F000801132462B46FFF753FF03B000F045B898
:1007000040462146F9E7001B61EB0201001C41F560
:10071000801300185B412018A2F5001747EB030176
:1007200040EAD570B6196D4111E06D084FEA360602
:1007300045EAC0754FEA0752001B61EB0201001C3D
:1007400041F5801149084FEA300000195141324605
:100750002B4603B000F01CB8FFF713BF009801222E
:1007600040000023D0EB020263EBE07300982146C7
:100770004FEAE074B8EB000061EB0401E9E783F0B5
:1007800000435BE781F0004158E730BCBDE8C08F13
:1007900030BCBDE8C04FFFF7DFBF70B521F00043AC
:1007A00003430CD0C1F30A550024D5EB040564EBD8
:1007B0000403D617AD1AB34102DB0020014670BD19
:1007C000201841EB025170BD30B5041E71F10004D8
:1007D00004DB4FF00044404264EB0101141E73F14E
:1007E000000405DB1C464FF00043524263EB040358
:1007F000994208BF904230BD064C074D06E0E068C4
:1008000040F0010394E8070098471034AC42F6D357
:10081000FFF7C0FCE048000800490008202A06DB7A
:10082000CB17203A41FA02F043EAE07306E041FABE
:1008300002F3D040C2F120029140084319467047AC
:100840002DE9F04D00231A461B1A8A4103DB0020D4
:100850000146BDE8F08DC1F30A52C1F3130141F422
:1008600080154FF0000BD10702D100186D41521EC8
:100870000027044640F2FF11384601EB620A3E466B
:100880008046024600204FF48011FFF733FEC21964
:100890007141BB1846EB0100B4EB030C75EB000C87
:1008A00004D3E41A65EB000517460E46241908F137
:1008B00001006D4180463428E3DDF91946EB06005E
:1008C000091BA84103D24FF0FF32134601E000227A
:1008D00013461BEB070046EB0A51BDE8F04DFFF74E
:1008E00050BE10B5846A616D11F0500F06D0616D75
:1008F000C90625D5204600F0ECFA10BD606D40F425
:100900000070606520680168090716D501F07EFE59
:1009100078B12068C068800400280ADB606D20F48C
:1009200080706065606DC00403D4606D40F00100AC
:100930006065204600F0CBFA10BDC0688007EBE789
:10094000E16C496BBDE81040084710B5806A416D05
:1009500041F040014165816D41F00401816500F085
:10096000B8FA10BD10B5806A00F0B2FA10BD0000F0
:1009700070B504460068816811F0010F28D18168C4
:10098000144A114215D18168D5432940491C816020
:1009900000F01CFD064616E0816811F0010F03D13E
:1009A00081682940491C816000F010FD801B0228ED
:1009B00009D9606D40F010006065A06D40F0010045
:1009C000A065012070BD20680168C943C907E3D153
:1009D000002070BD3F000080FEE700001FB5002131
:1009E00003911023022203A98DE80E000246054858
:1009F00001230188044800F09FFDBDF80C0004B0FD
:100A000010BD0000020000209C00002030B590F8CE
:100A1000444004F01C050124AC40056C6C60046883
:100A200063608368102B036803D099600068C2601C
:100A300030BD9A600068C16030BD00000E4801689A
:100A400021F080710160016841F0807101600B4804
:100A5000016821F001010160016841F001010160BC
:100A60000021416000BF00BF00BF406808B1002006
:100A70007047012070470000FCED00E0001000E02E
:100A800031B5084D6C6801F0E3F80749B0FBF1F0AF
:100A900000994843009068680099001B8842FAD387
:100AA00038BD0000001000E040420F0031B5084D95
:100AB0006C6801F0CDF80749B0FBF1F000994843AC
:100AC000009068680099001B8842FAD338BD000086
:100AD000001000E040420F00704770472DE9F84FCA
:100AE00000270446009790F85000DFF8B0930D46B9
:100AF000B846012811D0012684F85060206801F022
:100B000081FD60B1606D40F0200060655FF001071D
:100B100084F85080384600F0D7B90220FBE76868B7
:100B20000C23052812D8022807D0032807D0042850
:100B300007D0052807D0062007E06B6006E01220EA
:100B400003E0182001E04FF480706860D5E90021CF
:100B5000206803EA91131844036B01F01F014FF062
:100B60001F0C0CFA01FCC2F3846223EA0C038A40D6
:100B700013430363206801F045FD8246206801F0BD
:100B80003DFD5AEA00001DD1AA682968206801F0DD
:100B900045FD20686969C268C2F3C10252009140F4
:100BA0002A69042A0FD000EB82002B68026EDFF85E
:100BB000F0C203F0F84302EA0C020B431A4342F07E
:100BC0000041016672E0002101F012FD400320683F
:100BD0004FF0000172D001F00BFD90FAA0F0B0FAD6
:100BE00080F1286842036ED090FAA0F0B0FA80F04D
:100BF000814204D100221146206801F01EFD01212E
:100C0000206801F0F5FC400320684FF001015DD041
:100C100001F0EEFC90FAA0F0B0FA80F128684203EF
:100C200059D090FAA0F0B0FA80F0814204D10022AD
:100C30000121206801F001FD0221206801F0D8FCAB
:100C4000400320684FF0020148D001F0D1FC90FA37
:100C5000A0F0B0FA80F12868420344D090FAA0F0E6
:100C6000B0FA80F0814204D100220221206801F014
:100C7000E4FC0321206801F0BBFC400320684FF036
:100C8000030133D001F0B4FC90FAA0F0B0FA80F187
:100C9000286842032FD090FAA0F0B0FA80F0814289
:100CA00004D100220321206801F0C7FC206881687C
:100CB00011F0010F22D0ACE000E004E001F098FC5C
:100CC000C0F384618DE7C0F3846091E701F090FC8C
:100CD000C0F38461A2E7C0F38460A6E701F088FC5A
:100CE000C0F38461B7E7C0F38460BBE701F080FC28
:100CF000C0F38461CCE7C0F38460D0E72A7B296825
:100D000050F8B03FC1F3120C23EA0C0302F0180CA8
:100D1000644A22FA0CF20A4013430360E968494529
:100D200077D1286841031CD090FAA0F1B1FA81F183
:100D3000491C01F01F0109294FEA403132D800292E
:100D400012D000BF90FAA0F1B1FA81F101F10101D6
:100D500001F01F0106FA01F609D100BFC0F384615A
:100D600009E0C0F38461E3E7C0F38461EEE790FA41
:100D7000A0F1B1FA81F101F1010101F01F0146EA90
:100D8000816102D1C0F3846003E090FAA0F0B0FA70
:100D900080F000F1010000F01F0000EB400041EA8C
:100DA000005132E000290ED090FAA0F1B1FA81F1A1
:100DB00001F1010101F01F0106FA01F606D100BFA1
:100DC000C0F3846106E0C0F38461F1E790FAA0F11A
:100DD000B1FA81F101F1010101F01F0146EA8161DF
:100DE00002D1C0F3846003E090FAA0F0B0FA80F082
:100DF00000F1010000F01F002B4A00EB400002EB65
:100E0000005041EA000141F00071AA68206801F039
:100E100005FC26482A6802423FF47AAE24488168DD
:100E2000244D254B01F0E071AA421AD10D0218D4CD
:100E300022689A427FF46CAE826841F4000122F08D
:100E4000E0720A4382601D481D490068B0FBF1F062
:100E500000EB4000800000E0401E00900028FBD125
:100E600056E6184DAA4207D1CD0105D422689A4210
:100E7000F6D141F080710AE06FF00045EA42EFD10F
:100E80004A02EDD422689A42EAD141F48001826894
:100E900022F0E0720A4382603AE6000000007F40E0
:100EA00000F0FF03FFFF0700000020FE00000880A5
:100EB00000030450000052C700000450300000201E
:100EC000400D0300000084CB18BCBDE8E08F7047E4
:100ED00070477047F8B54FF0000504002E460095A6
:100EE00002D0606D10B107E00120F8BD204600F08F
:100EF000C7F8A66584F8506020688168C1F3407126
:100F000019B18168564A1140816020688168C1F337
:100F1000007179B98168534A114041F08051816074
:100F2000514852490068B0FBF1F000E0401E0090CB
:100F30000028FBD120688168C1F3007141B9616D5F
:100F400041F010016165A16D41F00101A16501252C
:100F500001F058FB616DC90600D430B1606D40F0FE
:100F60001000606501252846F8BD606D20F4807092
:100F700040F0020060652068806810F0010F0BD11E
:100F80003B48806810F0010F06D13A4861688268DA
:100F900022F47C120A438260E168606B627E08433F
:100FA000A16841EA4231084394F8201040EA014028
:100FB000012904D1A18C304A02EB41410843A16AC6
:100FC00029B101F47071E26A014342EA010021682B
:100FD000CA682A4B1A400243CA60206801F012FB1B
:100FE0000646206801F00AFB304315D1207E94F8B4
:100FF0003010800340EA41022068C16844F20203D5
:1010000099431143C16094F8380001280CD020683E
:10101000016921F001010161206901282068016B4B
:1010200021F00F0111D013E0D4E90F010843D4E9F6
:1010300011121143084321680A6940F2FC739A4374
:10104000104340F001000861E6E7E269521E1143D7
:101050000163606D20F0020040F00100606582E7EE
:10106000C0FFFF5FC0FFFF7F30000020400D030086
:1010700000000450000304500000FEFF07C0F0FF12
:1010800010B586B0044614216846FFF7D6F811491A
:10109000206888421BD11048C16C41F40051C164E2
:1010A000C16C01F400510591C16C41F00101C164B2
:1010B000C06C694600F001000590C62000900B202E
:1010C0000190002002904FF0904000F0ABF806B085
:1010D00010BD0000000004500010024070B504462E
:1010E00015460E46006801F08DFAE0BB94F85000FA
:1010F000012842D0012084F850002046FFF738FC38
:10110000002110B184F8501070BD606D40F601628E
:10111000904340F480706065606DC00404D5A06D9C
:1011200020F00600A06500E0A165E26C1448D062E2
:10113000E26C14481063E26C1348506322681C2070
:10114000106084F850102068416841F0100141603F
:101150002068C16841F00101C16021682B46324618
:101160004031E06C00E008E000F012F821688A6885
:10117000064B1A40121D8A6070BD022070BD00002F
:10118000E3080008650900084B090008C0FFFF7F5D
:1011900070B5044690F82400002501280CD00120E9
:1011A00084F8240094F825600020012E06D084F8ED
:1011B00024000225284670BD022070BD022684F856
:1011C0002560E0632068066826F001060660204678
:1011D000FFF71CFC206B00282068016802D041F05A
:1011E0000E0106E021F0040101602068016841F071
:1011F0000A0101602068016841F001010160D9E73E
:1012000070B5044600F0E2F80546601C02D00448C0
:101210004068044400F0DAF8401BA042FAD370BDE5
:10122000240000202DE9F84FDFF870B100230127DA
:101230004FF0030A4FF00F090BF1040EA7E000BFB7
:1012400007FA03F6324070D04C68022C01D0122C01
:1012500010D1DC0800EB8408D8F820405D074FEA85
:10126000D56C09FA0CF5AC430D6905FA0CF525436C
:10127000C8F82050D0F800805D0091F804C00AFA48
:1012800005F40CF0030C28EA04080CFA05FC4CEAFF
:10129000080CC0F800C0D1F804C0BCF1010F08D0A0
:1012A000BCF1020F05D0BCF1110F02D0BCF1120F3E
:1012B00016D1D0F808C0D1F80C802CEA040C08FA3A
:1012C00005F848EA0C08C0F80880D0F804C02CEAF9
:1012D000060C0E79C6F300169E4046EA0C064660E0
:1012E000C668A6438C68AC403443C4604C68E400D4
:1012F0004CD52B4C256E45F001052566246E23F058
:10130000030504F001040094264C2E19B4689D07CF
:101310004FEA157C09FA0CF5AC43B0F1904F05D0BB
:10132000214DA84204D1012508E02FE0002505E069
:101330001E4DA84201D1022500E0072505FA0CF553
:101340002543B560DBF800405D464E689443F603E4
:1013500000D514432C60DEF8004075464E68944377
:10136000B60300D514432C600C4D08352C684E682C
:101370009443F60200D514432C60084D0C352C68BC
:101380004E689443B60200D514432C605B1C0A6877
:1013900032FA03F47FF454AF00F00AB800040140BD
:1013A000001002400000014000040048000800480E
:1013B00018BCBDE8E08F0069084000D001207047EC
:1013C0000AB18161704781627047000001488068FE
:1013D000704700002400002090F84120202A24D1EA
:1013E00090F84020012A20D0012280F840202422B9
:1013F00080F841200268136823F00103136002683B
:10140000136823F480531360026813680B4313605E
:1014100001680A6842F001020A60202180F8411048
:10142000002180F84010084670470220704790F86D
:101430004120202A22D190F84020012A1ED00122EA
:1014400080F84020242280F841200268136823F0AD
:10145000010313600268136823F4706343EA0121F7
:10146000116001680A6842F001020A60202180F8D8
:101470004110002180F84010084670470220704754
:1014800070B5040004D094F84100002510B106E0C6
:10149000012070BD84F84050204600F003F924205C
:1014A00084F841002068016821F001010160606852
:1014B000216820F0706008612068816821F4004193
:1014C0008160E0680128A06807D040F404402168EA
:1014D0008860E068022803D006E040F40040F6E7A8
:1014E00021684FF40060486020684168114A114348
:1014F00041602068C16821F40041C160D4E9040161
:101500000843A16940EA01202168C860D4E90701C5
:101510000843216808602068016841F0010101600A
:101520006564202084F84100256384F8425000203F
:1015300070BD0000008000022DE9FF4F83B004461B
:10154000DDE9108790F84100DDF848909A4693460F
:10155000202874D15FEA080014D09FB194F84000AD
:1015600001286CD0012084F84000FFF72FFF0646C9
:10157000012200901923D103204600F0BFFF00286C
:1015800071D103E04FF4007060646CE0222084F8B5
:101590004100402084F8420000256564C4F824809E
:1015A00067856563CDE9009653465A4620460499FF
:1015B00000F05CFF10B184F8405054E0618D354874
:1015C000FF274FF080784FF0007AFF2904D9278554
:1015D0003A464346009005E0618D2185009094F8DD
:1015E000282053462046049900F072FF4B46002203
:1015F00004212046009600F081FFA0BB2068406ACD
:10160000616A0870606A401C6062208D401E81B271
:101610002185608D401E6085608DD8B1D1B94B4663
:10162000002280212046009600F068FFD8B9608D26
:10163000FF2805D927853A464346009506E026E06F
:10164000608D2085009594F8282053462046049903
:1016500000F03EFF608D0028C8D132464946204642
:1016600000F078FF18B1012007B000F017B821682A
:101670002020C86121684A68074B1A404A6084F8F4
:10168000410084F8425084F840500020ECE70220EA
:10169000EAE700000024008000E800FE30BCBDE85E
:1016A000C08F000010B586B0044614216846FEF7CE
:1016B000C4FD1249206888421ED1114CE06C40F0F4
:1016C0000200E064E06C694600F002000590C02072
:1016D000009012200190012002900320039004202A
:1016E00004900848FFF79EFDA06D40F40010A0652F
:1016F000A06D00F40010059006B010BD005400402D
:101700000010024000040048024881684268114409
:10171000816070472400002010B50024032000F0F1
:1017200063F8002000F008F808B1012401E000F09F
:1017300025F8204610BD000070B50E4E0546002469
:10174000706898B14FF47A71B1FBF0F00A490968FA
:10175000B1FBF0F000F08AFD40B9102D06D2002256
:101760002946501E00F020F8356000E00124204694
:1017700070BD00002400002030000020094808B59A
:10178000016E41F001010166016E01F0010100915D
:10179000816D41F080518165806D00F08050009036
:1017A00008BD000000100240F0B40E4B1B680C4650
:1017B000C3F30223C3F10705042D00D90425191D25
:1017C000072901D2002300E0DB1E012606FA05F1FD
:1017D000491E214099409E40761E16403143F0BC80
:1017E00001F0CABB0CED00E0064900F007020868F2
:1017F0004FF6FF03184040EA0220034A10430860F6
:10180000704700000CED00E00000FA051649B0F545
:10181000007F0868C0F3412009D0022805D008687D
:1018200020F4C06040F48060086000207047012808
:10183000FBD0086820F4C06040F4007008600B48DA
:101840003222006850430A4AB0FBF2F0401C00E02C
:10185000401E4A69520501D50028F9D14869400562
:10186000E3D50320704700000070004030000020E6
:1018700040420F000248006800F4C060704700005A
:10188000007000400248016841F4807101607047B7
:10189000007000400248016841F004010160704797
:1018A000001002402DE9F84F0446002700889C4DA7
:1018B0003E46000515D5E06B60B1B0F5000F04D0D1
:1018C000B0F5400F2BD001270AE0E86840F48030E3
:1018D000E86024E00021201D00F07EFF07001ED0FC
:1018E0003E462068800338D5A86D4FF00008C00040
:1018F00009D4A86D40F08050A865A86D4FF001088C
:1019000000F080500090DFF81CA2DAF8001041F4DB
:101910008071CAF80010FFF759FD814610E0D5F834
:101920008800E16B20F440000843C5F88800D8E740
:10193000FFF74CFDA0EB0900022801D9032704E0C2
:10194000DAF80000C005F3D5EFB33E46B8F1000F5A
:1019500003D0A86D20F08050A8652078C00707D07C
:10196000D5F88800216A20F003000843C5F88800F4
:101970002078800707D5D5F88800616A20F00C0030
:101980000843C5F888002078800607D5D5F8880078
:10199000A16A20F440600843C5F8880020888005CB
:1019A00007D5D5F88800616B20F440200843C5F8BE
:1019B00088002088400509D5D5F88800A16B20F45F
:1019C0004010084300E02EE0C5F88800207840066B
:1019D00007D5D5F88800E16A20F440500843C5F8DF
:1019E00088002088C00507D5D5F88800216B20F431
:1019F00040300843C5F8880020884FF00067800415
:101A00004FF080684ED5D5F88800216C20F04060FA
:101A10000843C5F88800206CB8423BD1E86840F420
:101A20008010E8603EE0D5F8900010F4407014D0CB
:101A3000216D814211D0D5F89000D5F8901020F496
:101A4000407041F48031C5F89010D5F8901021F421
:101A50008031C5F89010C5F89000C00711D0FFF78D
:101A6000B5FC074641F2883907E000BFFFF7AEFC3E
:101A7000C11B494501D9032668E7D5F890008007C6
:101A8000F4D5D5F89000216D20F440700843C5F8D6
:101A900090005BE7404505D10121201D00F09CFE30
:101AA00000B106462068400317D5D5F88800616C60
:101AB00020F040600843C5F88800606CB84204D14B
:101AC000E86840F48010E86007E0404505D1012156
:101AD000201D00F081FE00B106462088400411D58B
:101AE000D5F88800A16C20F040500843C5F8880064
:101AF000A06CB0F1805F05D10221201D00F06CFECA
:101B000000B106462088000406D555F8880FE16C20
:101B100020F0804008432860304600F005B80000FF
:101B2000001002400070004018BCBDE8E08F0000CB
:101B30002DE9F0470F46050058D0404E306800F0C0
:101B40000700B84209D2306820F0070038433060FF
:101B5000306800F00700B84248D12878384CC007F8
:101B60002CD06868032811D0022812D0216898B1BF
:101B7000490500293ADAA16821F003010143A16077
:101B8000FFF724FC804641F2883910E02168890182
:101B9000EFE721688903ECE78907EAE7FFF716FC1E
:101BA000A0EB0801494502D90320BDE8F087A068F1
:101BB000696800F00C00B0EB810FEFD12878800746
:101BC00005D5A068A96820F0F0000843A06030683F
:101BD00000F00700B8420BD9306820F00700384306
:101BE0003060306800F00700B84201D00120DCE727
:101BF0002878400705D5A068E96820F4E06008432C
:101C0000A0602878000706D5A068296920F46050F4
:101C100040EAC100A06000F045F8A168094AC1F39C
:101C20000311515C01F01F01C840074908600748D3
:101C30000068BDE8F047FFF77FBD000000200240CC
:101C40000010024008480008300000202400002056
:101C50000148006870470000300000200548064930
:101C600000688968054AC1F30221515C01F01F0137
:101C7000C84070473000002000100240484800086B
:101C80000548064900688968054AC1F3C221515CCC
:101C900001F01F01C84070473000002000100240D2
:101CA0004848000870B52549002318468A68CC6862
:101CB00012F00C0204F00306214C4FEA640509D02F
:101CC0000C2A05D0042A32D0082A00D1284670BD3B
:101CD000012E10D10B681B0704D4D1F89430C3F344
:101CE000032302E00B68C3F30313164E56F82330A8
:101CF000DAB10C2AEBD1C86800F00300022818D032
:101D0000032818D01846CA68CB68C2F30212C3F37E
:101D100006234343521CB3FBF2F2C868C0F3416090
:101D2000401C4000B2FBF0F070BD184670BD20466C
:101D300070BD2046E7E72846E5E7000000100240B6
:101D40000024F400184800082DE9F84304006ED080
:101D5000FD4DA86800F00C06E86800F00307207845
:101D6000C00663D576B10C2E01D1012F0AD0A0692F
:101D70000028286878D040F001002860FFF726FB93
:101D800080465BE02868800702D5A0690028DED085
:101D9000216A2868000703D5286800F0F00004E0F5
:101DA000D5F89400F02202EA1010814216D90846B4
:101DB00000F0A8FD00283AD1286840F0080028600B
:101DC0002868216A20F0F000084328606868E1690B
:101DD00020F47F4040EA0120686015E0286840F068
:101DE000080028602868216A20F0F0000843286075
:101DF0006868E16920F47F4040EA01206860206A59
:101E000000F080FD0028D6D1FFF74CFFA968CF4A2B
:101E1000C1F30311515C01F01F01C840CC490860B7
:101E2000CC480068FFF788FC00287DD12DE0C9E090
:101E3000FFF7CCFAA0EB0800022876D828688007C4
:101E4000F6D5286840F0080028602868216A20F04C
:101E5000F000084328606868E16920F47F4040EAA8
:101E60000120686011E0FFE720F001002860FFF723
:101E7000ADFA804606E000BFFFF7A8FAA0EB080025
:101E80000228DAD828688007F6D42078C00740D026
:101E9000082E18D00C2E01D1032F14D06068B0F595
:101EA000803F17D0B0F5A02F286817D020F48030DD
:101EB0002860286820F4802028606068E0B1FFF77F
:101EC00085FA804614E02868800322D560680028DF
:101ED00078D01EE0286840F48030EDE740F48020A0
:101EE0002860F7E7FFF772FAA0EB08006428A4D88F
:101EF00028688003F6D50CE0FFF768FA804605E015
:101F0000FFF764FAA0EB0800642896D828688003DD
:101F1000F6D4207880073BD5042E11D00C2E01D1A9
:101F2000022F0DD0E06801E064E1B8E000282868E5
:101F30001ED040F480702860FFF748FA07460CE096
:101F4000286840050CD5E0680028C1D008E000BF33
:101F5000FFF73CFAC01B022893D828684005F7D544
:101F60006868217C20F0F85040EA016068600FE06A
:101F700020F480702860FFF729FA074605E000BFCB
:101F8000FFF724FAC01B0228B1D828684005F7D40F
:101F90002078000729D560690028D5F8940012D070
:101FA00040F00100C5F89400FFF710FA074604E07E
:101FB000FFF70CFAC01B022871D8D5F894008007EF
:101FC000F6D512E04CE120F00100C5F89400FFF7CF
:101FD000FDF9074605E000BFFFF7F8F9C01B02282E
:101FE0005DD8D5F894008007F6D42078400766D5F0
:101FF000A86D0027C00008D4A86D40F08050A865E7
:10200000A86D012700F08050009053480168C90571
:1020100012D40168814641F480710160FFF7D6F95E
:10202000804605E0FFF7D2F9A0EB0800022836D879
:10203000D9F80000C005F5D5A068012816D00528FC
:10204000D5F8900017D020F00100C5F89000D5F821
:10205000900020F0040000BFC5F89000A06841F295
:102060008839C0B1FFF7B2F980460FE0D5F890008B
:1020700040F00100F0E740F00400C5F89000F5E7FB
:10208000FFF7A4F9A0EB0801494508D8D5F890005E
:102090008007F5D50EE0FFF799F9804606E07CE071
:1020A000FFF794F9A0EB0801494576D8D5F89000E0
:1020B0008007F5D41FB1A86D20F08050A865207866
:1020C000800628D5606A0028D5F8980012D040F024
:1020D0000100C5F89800FFF779F9074605E000BF51
:1020E000FFF774F9C01B022857D8D5F8980080076D
:1020F000F6D510E020F00100C5F89800FFF766F96A
:10210000074604E0FFF762F9C01B022871D8D5F832
:1021100098008007F6D4A06AF0B30C2E71D0022884
:10212000286820F0807028601AD02868000103D445
:10213000E86820F00300E860E86808490840E860C3
:10214000FFF744F9044657E0001002400848000831
:10215000300000202400002000700040FFFFEEFE51
:10216000FFF734F9064604E0FFF730F9801B022838
:102170003FD828688001F7D4F4E90B016FF00F0213
:1021800002EB01110843218A4908520402EB415134
:10219000A26841EA022101E064E02AE00843217DCF
:1021A0004FF07E42490802EB41610843217B40EA3F
:1021B000C160E9682C4A11400843E860286840F093
:1021C00080702860E86840F08070E860FFF7FEF8F3
:1021D000044604E0FFF7FAF8001B022809D8286833
:1021E0008001F7D53EE000BFFFF7F0F8001B0228A2
:1021F00002D90320BDE8F88328688001F4D431E0D7
:10220000FFE70128F6D0E868E26A00F00301914296
:1022100026D1216B00F070020901103991421FD1C3
:10222000626B00F4FE41B1EB022F19D194F8382013
:1022300000F07841B1EBC26F12D1A18F00F4C0025F
:1022400049084905A1F50011914209D194F84010BF
:1022500000F0C06049084906A1F10071814201D037
:102260000120C7E70020C5E78C809D0110B5401E06
:10227000B0F1807F01D3012010BD4FF0E0246061F8
:102280000F21601700F078FE0020A0610720206178
:10229000002010BD10B5040002D0606F10B107E03F
:1022A000012010BD002084F87000204600F026F8C0
:1022B000242060672068016821F001010160204648
:1022C00000F0A4FC0128ECD0606A10B1204600F0B8
:1022D0000DFC2068416821F49041416020688168CC
:1022E00021F02A0181602068016841F0010101604C
:1022F0002046BDE8104000F05DBC000010B586B07F
:10230000044614216846FDF798FF13492068884267
:1023100020D11248016E41F480410166016E01F442
:1023200080410591C16C41F00101C164C06C6946F6
:1023300000F0010005904FF4C06000900220019071
:102340000020029003200390072004904FF090405B
:10235000FEF768FF06B010BD0038014000100240D3
:10236000436F202B28D1B1B1AAB190F87030012B66
:1023700022D0012380F87030C164A0F85020A0F86A
:10238000522000214166C167212242678268B2F56E
:10239000805F02D003E001207047026952B1074A12
:1023A000426680F870100068016841F080010160A9
:1023B00000207047024AF3E702207047812E000890
:1023C000412E0008FEE701688A69D243920701D4D2
:1023D00000228A6200688169C943C90703D0816904
:1023E00041F00101816170472DE9F0410446006828
:1023F00090460E468069C043C00633D4002520278E
:1024000020688069C043800615D5701CF8D0FEF79F
:10241000DDFFA0EB0800B04201D8002EF0D154F847
:10242000440F40F0200044F804096770A57025703F
:102430000120BDE8F08121681020C8612068C761D3
:102440002046FFF7C0FF54F8440B4168064A11408C
:102450004160206840F0040044F820096777A577C0
:102460002577E5E70020E4E700E800FE2DE9F843E2
:1024700004461646DDE9089714489846DAB20090FB
:102480000023204600F024F83A464946204600F052
:1024900087F8B8B9F5B2B8F1010F08D02168300A51
:1024A00088623A464946204600F07AF850B92068DA
:1024B00085624B46002240212046009700F01EF81E
:1024C000002800D00120BDE8F88300000020008033
:1024D000F0B50568059C68684FF48066064FC1F347
:1024E000090106EA545641EA02413E431943B0430A
:1024F000214308436860F0BDFF63FF032DE9F0410D
:102500001D4617460E460446DDF8188008E0681C94
:1025100006D0FEF75BFFA0EB0800A8420BD855B130
:102520002068806936EA000012D00020B842EED060
:102530000020BDE8F08154F8440F40F0200044F83A
:102540000409202060700020A07020700120F0E7B6
:102550000120EBE770B516460D4604460DE0324605
:1025600029462046FFF740FF08B1012070BDFEF765
:102570002DFF801BA84207D835B120688069C04371
:102580008006ECD4002070BD54F8440F40F02000C9
:1025900044F80409202060700020A0702070E4E757
:1025A00070B516460D4604460FE0324629462046D1
:1025B000FFF71AFF08B1012070BD681C05D0FEF7B7
:1025C00005FF801BA84207D835B120688069C04349
:1025D0008007EAD4002070BD54F8440F40F020007A
:1025E00044F80409202060700020A0702070E2E709
:1025F00000EB8100006E00F0F84070478068C0F387
:10260000C00070478068C0F380007047C06810F455
:10261000406F01D00020704701207047042303EA77
:10262000D15310B518444369C1F3045107248C40B9
:10263000A3438A401343436110BD00EB8100016E48
:1026400021F00041114301667047000030B587B0AA
:1026500018216846FDF7F1FD194818490024C0E922
:1026600000140425456101218460C0E9034104761A
:1026700041760221C16180F820408462C46280F802
:102680003040446380F83840FEF724FC0D48009049
:102690000620CDE901040C480594CDE903056946FF
:1026A0000748FEF71BFA094800900C200190694684
:1026B0000348FEF713FA07B030BD000000000450D5
:1026C000380000204000201900007F400008302E14
:1026D000F0B587B014216846FDF7AFFD1E48C16C08
:1026E00041F00401C164C16C01F004010591C16CA9
:1026F00041F00101C164C16C01F001010591C16C9F
:1027000041F00201C164C06C4FF4807600F0020019
:102710004FF090470590002231463846FEF750FEB4
:1027200000240125CDE90054694638460294FEF79D
:1027300079FD0220CDE90004694608480294FEF7BD
:1027400071FD0096CDE90154694638460394FEF7C1
:1027500069FD07B0F0BD0000001002400004004811
:102760000E4810B50C4901600D494160002101225D
:10277000C0E90212016141618161C1610162FEF73C
:102780007FFE00210548FEF727FEBDE8104000212E
:102790000248FEF74CBE0000005400409C000020A0
:1027A000EC9C90100948084901604FF416514160B3
:1027B000002181600C22C160C0E904128161C16105
:1027C00001624162FFF766BD00380140E800002069
:1027D000FEE77047704700002DE9F041444C054684
:1027E0008846E0680026810728680DD0E16801F07E
:1027F0000301814216D1A8B1E0686968C0F30210F4
:10280000401C88420ED120E0012804D0022805D0C7
:10281000032807D108E02168890701E021684905FC
:10282000002907DB01265FE02168890302D42168C3
:102830004903F5E7E1686A686FF00F0321F073015F
:1028400003EB021211430143E160206820F0806035
:102850002060FEF7BBFD074605E000BFFEF7B6FDB2
:10286000C01B022837D820680001F7D4B8F1000F48
:1028700018D0B8F1010F1DD0287D4FF07E414008DF
:1028800001EB4060A96840EA01202169194A114022
:1028900008432061206840F080602060FEF796FDCC
:1028A00007461AE0A868297B000240EAC160216956
:1028B000114AECE7288A1149400801EB4050A96809
:1028C00040EA012021690E4AE1E700BFFEF77EFDE4
:1028D000C01B022801D9032606E020680001F5D5B7
:1028E0002069A969084320613046BDE8F0810000F5
:1028F00000100240FF80FFF9FF80FF070000E0FFAB
:10290000FF809FFFF8B51C4D06460024A86DC0004F
:1029100002D5FEF7AFFF0DE0A86D40F08050A8652E
:10292000A86D00F080500090FEF7A4FFA96D21F083
:102930008051A965B0F5007F04D0802E07D94FF0F3
:1029400003040AE0802E08D9A02E01D804E001D1AA
:10295000022402E0702E00D101240848016821F011
:10296000070121430160006800F00700A04201D088
:102970000120F8BD0020F8BD0010024000200240F8
:102980007047FEF7C1BE0000F0B5ABB0442115A8FA
:10299000FDF753FC142126A8FDF74FFC542168468F
:1029A000FDF74BFCFEF76EFF204850F8901F21F01A
:1029B0001801016014201590602001241D9000254D
:1029C00017940226CDE91B45CDE91F640727CDE901
:1029D000237628202596CDE9214015A8FFF7B4F9E4
:1029E0000F2026900320CDE927052995042126A84C
:1029F0002A95FFF79DF844F24100009008950007E2
:102A000012901020CDE902400B9501940005CDE90C
:102A10000660CDE904766846FEF744FF6002FEF7E3
:102A2000F5FEFEF737FF2BB0F0BD000000100240AE
:102A30000D48016841F4700101600C48016841F0E3
:102A400001010160002181600268094B1A400260A7
:102A50008214C260026822F480220260816102490D
:102A6000C00380390860704788ED00E00010024024
:102A7000FFFFF6EA70B50646342000F033F860F345
:102A80001F44362000F02EF860F30F05382000F0C8
:102A900029F860F31F453A2000F024F860F30F0492
:102AA0000F480078EB2812D005DCB0B1C02812D056
:102AB000D52809D10DE0F62803D0FF2804D1032042
:102AC00000E01820FEF79CFB3560746070BD32207A
:102AD000F8E76520F6E79A20F4E74FF42F70F1E766
:102AE0000000002040F08000FDF778BF90F824102F
:102AF000C90706D001684A68836A22F400321A4383
:102B00004A6090F82410890706D501684A68C36AAC
:102B100022F480321A434A6090F82410490706D5FF
:102B200001684A68036B22F480221A434A6090F8D5
:102B30002410090706D501684A68436B22F4004255
:102B40001A434A6090F82410C90606D501688A68BD
:102B5000836B22F480521A438A6090F8241089060D
:102B600006D501688A68C36B22F400521A438A6052
:102B700090F82410490611D501684A68036C22F4C4
:102B800080121A434A60016CB1F5801F06D10168BA
:102B90004A68436C22F4C0021A434A6090F8241039
:102BA000090606D501684A68806C22F400220243B7
:102BB0004A607047F8B500260446C667FEF706FC73
:102BC0000546206800686FF07E47000708D52B4651
:102BD00000224FF400112046009700F06FF960B911
:102BE0002068006840070AD52B4600224FF4800178
:102BF0002046009700F062F908B10320F8BD2020BC
:102C00006067A06784F870600020F8BD2DE9F0418E
:102C10000446026880682369E569184363690027F0
:102C20002B4318437D4913687D4D2B4003431360AC
:102C300020684268E36822F440521A4342602268E6
:102C4000A0698A4201D0236A1843936823F4306351
:102C500003439360734A2368734893420DD1D0F8BD
:102C6000880010F0030006D0012838D0022834D0A4
:102C7000032821D135E001251FE06C4A93420BD196
:102C8000D0F8880010F00C0025D0042827D00828A0
:102C900023D00C2810D124E08B420DD1D0F888002D
:102CA00010F4406017D0B0F5806F18D0B0F5006F09
:102CB00013D0B0F5406F14D010255D4A00264FF4B4
:102CC00000408B4245D175B1022D0FD0042D0FD09D
:102CD000082D18D10FE00025EFE70225EDE70425C8
:102CE000EBE70825E9E7FEF7B9FF03E0104602E04D
:102CF000FEF7D8FFA8B3626802EB4201814202D816
:102D0000B0EB023F01D9012775E0DFF828815DB102
:102D1000022D0CD0042D13D0082DF4D15008290514
:102D2000401846F1000105E0FEF798FF0AE0500860
:102D30004149F5E70023FDF745FAA0F5407156E05B
:102D4000FEF7B0FF6268010E0302500818187141C7
:102D5000F0E7E1694FF6EF7881422FD1092DD2D209
:102D600000E048E0DFE805F0060920052305050539
:102D70002600C8E7FEF772FF01E0FEF781FF410081
:102D8000D4F8040001EB5001B1FBF0F080B2A0F1E7
:102D900010014145B7D84FF6F0710140C0F3420031
:102DA00001432068C16026E024496068EAE7FEF735
:102DB00079FFE4E74FF480316068E3E7092DA2D2A0
:102DC000DFE805F006091E052205050525009AE73E
:102DD000FEF744FF01E0FEF753FF0146606801EB98
:102DE000500100BFB1FBF0F080B2A0F110014145ED
:102DF00089D82168C860266638466666BDE8F081D5
:102E0000606802EB5001EDE7FEF74CFFE5E7616813
:102E100000EB5100B0FBF1F0E6E70000008000405D
:102E2000F369FFEF00380140001002400044004009
:102E30000024F400FFFC0F00000024F40048E80127
:102E4000416F212910D1B0F8521071B1C16C0268E4
:102E50000988C1F308011185C16C891CC164B0F8EF
:102E60005210491EA0F85210704701680A6822F0FB
:102E700080020A600068016841F04001016070470B
:102E8000416F21290ED1B0F8521061B1C16C0268B6
:102E900009781185C16C491CC164B0F85210491EF3
:102EA000A0F85210704701680A6822F080020A6098
:102EB0000068016841F04001016070472DE9F04170
:102EC000984617460E460446069D08E0681C06D044
:102ED000FEF77CFAA0EB0800A8420BD855B1206899
:102EE000C06936EA000017D00020B842EED00020BA
:102EF000BDE8F0812068016821F4D071016020688C
:102F0000816821F00101816020206067A0670020B6
:102F100084F870000320EBE70120E6E7FEE70000FD
:102F20000FB4084B10B504A902AA039800F05AFF89
:102F3000044602A9002001F089F9204610BC5DF882
:102F400014FB00004D42000803B4019841000098B2
:102F500050EAC12018BF04204A0D18BF40F00100FC
:102F600040F2FF72B2EB515F08BF40F0020001284F
:102F700008BF052002B070470907090E002804DBCE
:102F800000F1E02080F80014704700F00F0000F11D
:102F9000E02080F8141D70472DE9F04D2DED040B55
:102FA0002DED0E8B96B0DDE92550279CDDF890A025
:102FB00025F0004624F00048BAF1000F14BF0121AB
:102FC000002101EB4502FC4953184A1093422AD3D1
:102FD000002814BF0123002303EB44030B44F749EB
:102FE0008B4220D358EA00019FEDF59B76D0DFF8A5
:102FF000D8B35D4503D1BAF1000F05D188E0BAF12D
:10300000000F08BF002100D0012101EB450111F59F
:10301000001F08D8002814BF0121002101EB440142
:1030200011F5001F0BD99DED261B9DED240B16B04D
:1030300000F0DABD04B0BDE8F04D00F081BE00271D
:10304000002DBCBFE149884521DAE1498845A8BF88
:1030500002271CDAC3451ADCDE4901EB285114298A
:1030600008DDC1F1340220FA02F101FA02F28242D3
:103070000DD108E058B9C1F1140228FA02F101FAA1
:1030800002F2424503D101F00101C1F1020756EA03
:103090000A0124D1002C22DA002D18BF022F01D002
:1030A000012F0AD0022000F097FE16B000F0A2BD5A
:1030B00004B0BDE8F04D00F02BBE022000F08CFE05
:1030C00000F026FE51EC100B81F0004141EC100B9A
:1030D00016B000F095BD04B0BDE8F08D18E09FED8E
:1030E000BEAB9FEDBF8B002871D1B848804522D17F
:1030F00005F1804010F5801008BFBAF1000F07D02D
:10310000B3450ADC002CA8BF9DED260BE0DA0DE0EC
:10311000B0EE490AF0EE690ADAE7002C06DA9DED16
:10312000260B51EC100B81F000416FE0AE48784463
:1031300090ED000BCCE7D8454DD1002C48DA2EB1EC
:1031400086423AD1BAF1000F42D126E0BAF1000F1F
:1031500013D0022000F040FE00F00EFE8DED020BB9
:103160009DED240B8DED000B10EE900A039961F399
:103170001E0003909DED020BAAE78DED02AB9DEDC5
:10318000240B1AEE901A10EE900A8DED000B61F3ED
:103190001E0003909DED020B9AE78DED028B9DEDD5
:1031A000240B18EE901A10EE900A8DED000B61F3CF
:1031B0001E0003909DED020B8AE709DA9DED240BBA
:1031C00051EC190B53EC102BFDF7B7F81EE020E083
:1031D0009DED240B7CE786421BDAB4F1804F0DD0C5
:1031E000A4F10050B0F1FF5013D1002D11DB9DED83
:1031F000240B51EC100B01F0C1FA07E09DED240BFC
:1032000053EC102B51EC100B00F0C2BC41EC100B36
:103210005EE79DED240B51EC100B01F0CDF9BAF1F6
:10322000000FCDE90E0142D19FED710B46B3A6F11F
:10323000E040B0F17F600CD05E4538D1002D00DA5F
:10324000A7B3022F0CBF01204FF0FF30FDF7E4F8C9
:10325000DCE7002D01DD002C0DDA002D01DD002C56
:103260001FDB002D16DA002C14DB012F08BF9FEDA9
:10327000620B3FF42DAFB0EE4A0AF0EE6A0A27E780
:10328000022F18BF002D0CD0012F0AD1002DFFF600
:103290001FAF06E0002DB8BF002C08DA012F3FF465
:1032A00017AFB0EE480AF0EE680A11E71BE0012004
:1032B00000EBE57050EA070115D0791EB0EE498A9F
:1032C000F0EE698A084308BF9FED4D8B4E480025FC
:1032D000804570DD4D494E48884514DDB0420DDB18
:1032E000002C19DB2FE0012000F076FD16B000F075
:1032F0008DBC04B0BDE8F04D00F02EBDB34502DC3E
:10330000002C09DC1FE0864202DA002C1BDA03E005
:103310005E452BDD002C16DD022000F05DFD00F087
:103320002BFD8DED020B53EC1A2B51EC180BFCF717
:103330008FFFCDE900010399019861F31E0003900E
:103340009DED020BC4E6022000F046FD00F024FDD6
:1033500010EE901A18EE900A8DED020B8DED008B99
:1033600061F31E0003909DED020BB1E69DED0E0B87
:1033700053EC192B51EC100BFDF701FA9FED260BC6
:10338000CDE9080153EC102B9DED080B51EC100B0F
:10339000FCF75EFF9FED221B53EC112BFDF7F2F9BA
:1033A0009DED081B53EC112BFCF752FF9FED1E1BEC
:1033B00053EC112B3CE08CE0FFFF1F00FFFF0F00E0
:1033C000000000000000F03F0000F03F0000F07F30
:1033D0000000404301FCFFFF000000000000F07F00
:1033E0000000000000000000A61700000000000020
:1033F0000000000000000080000000000000F0FF5E
:10340000000000000000F0BF0000E0410000F043B9
:10341000FFFFEF3F00000000000000000000D03F71
:10342000555555555555D53F000000000000E03F6B
:10343000FDF7A8F99DED080B41EC1A0B53EC102B8E
:1034400051EC100BFCF704FF53EC1A2BFCF700FFB8
:1034500041EC1A0B9FEDFE0B53EC102B9DED080B6E
:1034600051EC100BFCF7F4FE41EC1B0B9FEDFA0B3B
:1034700051EC1A0B53EC102BFCF7EAFE41EC1A0B43
:103480009FEDF70B53EC102B9DED080B51EC100B3F
:10349000FCF7DEFE53EC1A2BFDF771F941EC1A0B29
:1034A00051EC1B0B53EC1A2BFDF7C8F80690CDE935
:1034B00006519DED060B53EC1B2B51EC100BFDF749
:1034C0005EF953EC1A2BFDF75DF941EC100B00F09F
:1034D000A1B90020B6F5801F0EDA9FEDE30B53EC87
:1034E000102B9DED0E0B51EC100BFCF7B1FECDE94E
:1034F0000E016FF034000E4600EB2650A0F2FF37AD
:10350000C6F31300DA4940F07F6646F04056884221
:10351000D8BF002408DDD7498142C8BF012403DC9D
:103520000024A6F580167F1CD348784400EBC40025
:103530000F9690ED00CB9DED0E0B53EC1C2B51EC38
:10354000100BFDF71CF99DED0E0B41EC1B0B53EC22
:103550001C2B51EC100BFDF771F841EC100B51ECEA
:10356000190B53EC102BFCF7E8FE41EC1D0B51EC52
:103570001B0B53EC1D2BFCF76BFE41EC1A0BBF48E9
:103580008DED10AB7844109590ED000B4FF000508E
:1035900040EA660000EB84408DED080B00F500204A
:1035A00009909DED080B53EC1C2B51EC100BFDF713
:1035B000E6F89DED0E1B53EC112BFDF7E3F841EC03
:1035C000100B53EC102B9DED100B51EC100BFCF776
:1035D0003FFE9DED080B41EC1C0B53EC102B9DEDB9
:1035E000100B51EC100BFCF733FE53EC1B2BFDF7CB
:1035F000C9F853EC1C2BFDF7C2F853EC1D2BFCF75C
:1036000027FE41EC1C0B53EC1A2B51EC1A0BFCF768
:103610001FFE41EC1B0B9A480621B0EE4B0AF0EE60
:103620006B0A784400F0F8FAB0EE401AF0EE601A37
:10363000B0EE41DAF0EE61DA53EC1B2B51EC1B0BD0
:10364000FCF706FE53EC1D2BFCF702FE9DED100B64
:1036500041EC1B0B53EC1A2B51EC100BFCF7EEFF5B
:1036600053EC1C2BFCF7F4FD53EC1B2BFCF7E6FF93
:103670009DED100B41EC1B0B53EC102B51EC100B80
:10368000FCF7E6FD41EC1D0B9FED7FEB53EC1E2B91
:10369000FCF7D4FF53EC1B2BFCF7D0FF0890CDE9CF
:1036A00008519DED080B53EC1E2B51EC100BFDF750
:1036B00066F853EC1D2BFDF762F853EC1B2BFDF75E
:1036C00061F89DED080B41EC1D0B53EC102B9DEDAB
:1036D000100B51EC100BFCF7BBFD41EC1B0B53EC3A
:1036E0001A2B51EC1D0BFCF7B3FD9DED080B41ECC3
:1036F0001A0B53EC102B51EC1C0BFCF7A9FD53ECEF
:103700001A2BFCF79BFF41EC1A0B51EC1B0B53ECF3
:103710001A2BFCF793FF0C90CDE90C519DED0C0B8F
:1037200053EC1B2B51EC100BFDF729F853EC1A2B23
:10373000FDF728F841EC1B0B9FED550B53EC102BBC
:103740009DED0C0B51EC100BFCF782FD41EC1A0BBC
:103750009FED510B51EC1B0B53EC102BFCF778FD3C
:1037600041EC1B0B9FED4E0B53EC102B9DED0C0B06
:1037700051EC100BFCF76CFD53EC1B2BFCF75EFFC0
:1037800041EC100B4848784400EBC40090ED001B5E
:1037900051EC100B53EC112BFCF750FF41EC1B0BC1
:1037A0003846FCF739FECDE9080153EC1B2B51ECF0
:1037B0001A0BFCF743FF41EC100B3C48784400EB3C
:1037C000C40090ED00CB51EC100B53EC1C2BFCF71C
:1037D00035FF9DED081B53EC112BFCF72FFF0690D6
:1037E000CDE906519DED080B53EC102B9DED060B1A
:1037F00051EC100BFCF7C3FF53EC1C2BFCF7BFFF85
:1038000053EC1A2BFCF7BBFF53EC1B2BFCF7BAFF56
:1038100041EC100B9DED261B53EC102B8DED001B86
:1038200000959DED260B51EC100BFCF711FD9DED65
:10383000000B41EC1A0B53EC102B9DED260B51ECB9
:10384000100BFCF79CFF9DED061B53EC112B2FE09A
:10385000000000604715F73FFE822B654715F73FD4
:1038600044DF5DF80BAE543E000000000000404312
:103870008E9803007AB60B0022130000501300004C
:103880005A12000000000000000000000000084084
:10389000000000E009C7EE3FFD033ADC09C7EE3F38
:1038A000F5015B14E02F3EBEE6100000A010000002
:1038B000FCF7CEFC53EC1A2BFCF7C0FE9DED060B7B
:1038C00041EC1A0B53EC102B9DED000B51EC100B3F
:1038D000FCF7BEFCCDE90C019DED0C0B51EC1A0B75
:1038E00053EC102BFCF7AAFECDE902010C46AA49C5
:1038F0008C422FDB611A084318D19DED0C0B53EC61
:10390000102B9DED020B51EC100BFCF738FF41EC36
:103910001B0B9FEDA30B51EC1A0B53EC102BFCF778
:103920008DFE53EC1B2BFCF74FFF2DD2022000F035
:1039300053FA00F021FA10EE901A18EE900A8DED6D
:10394000020B8DED008B61F31E0003909DED020BC9
:10395000FFF7BEBB944A24F00041914214D393492F
:10396000214408437FF4EFAC9DED0C0B53EC102B7E
:103970009DED020B51EC100BFCF701FF53EC1A2BE1
:10398000FCF722FF7FF6DFAC24F000408849894A2B
:10399000002601EB205182422BDA481C4FF48011A3
:1039A00021FA00F02044844AC0F30A517A44A1F27B
:1039B000FF3192ED000B814A8DED080BCA4020EAE1
:1039C0000202C0F3130040F48010C1F1140120FA88
:1039D00001F60992002CB8BF76429DED080B53EC1E
:1039E000102B9DED0C0B51EC100BFCF7C8FECDE934
:1039F0000C019DED0C0B51EC1A0B53EC102BFCF74A
:103A00001DFE9FED6F0B0890CDE9085153EC102B74
:103A10009DED080B51EC100BFCF71AFC41EC1B0B55
:103A20009FED690B53EC102B9DED080B51EC100B27
:103A3000FCF70EFC9DED0C0B41EC1C0B53EC102B1A
:103A40009DED080B51EC100BFCF799FE53EC1A2B73
:103A5000FCF798FE9FED5E1B53EC112BFCF7F8FB77
:103A600053EC1C2BFCF7EAFD41EC1A0B51EC1B0B41
:103A700053EC1A2BFCF7E2FDCDE902019DED020BA0
:103A800053EC1B2B51EC100BFCF779FE53EC1A2B6B
:103A9000FCF778FE9DED020B41EC1A0B53EC102B5A
:103AA00051EC100BFCF7D4FBCDE908014A489DED21
:103AB000080B0521784400F0AFF89DED081B51EC90
:103AC000100B53EC112BFCF7C3FB9DED021B53ECC9
:103AD000112BFCF757FECDE906019DED020B53ECCF
:103AE0001A2B51EC100BFCF7B3FB53EC1A2BFCF721
:103AF000A5FD9FED3B0B41EC1A0B53EC102B9DEDFC
:103B0000060B51EC100BFCF73AFE9DED060B41EC59
:103B10001B0B53EC102B9DED020B51EC100BFCF723
:103B200097FB53EC1B2BFCF708FC53EC1A2BFCF710
:103B300026FE9DED021B53EC112BFCF720FE53ECEF
:103B4000192BFCF71FFECDE9020101EB0650011510
:103B50000029C8BF039015DC9DED020B324651ECE5
:103B6000100BFCF71AFEFFF7EFF9042808BF00F06E
:103B700013F932469DED020B51EC100BFCF70DFED4
:103B8000CDE902019DED020B51EC180B53EC102B0B
:103B9000FCF75EFBFFF73ABB00009040000000001E
:103BA000FE822B654715973C00CC904000346F3F58
:103BB00001FCFFFF0000E03F280F0000FFFF0F00A7
:103BC00000000000432EE63F396CA80C615C20BE6B
:103BD000EF39FAFE422EE63FF80D0000000000002B
:103BE0000000000000000040BDEC088BBDEC06CBDF
:103BF000FFF720BABDEC088BBDEC06CBFFF758BA37
:103C0000BDEC088BBDEC06CBFFF765BABDEC088BAD
:103C1000BDEC06CBFFF76DBB70B504462DED028BF6
:103C20004D1E00EBC500B0EE408AF0EE608A90EDCC
:103C3000000B35F0060017D053EC182B51EC100B8D
:103C4000FCF706FB41EC100B6D1E04EBC50090ED7C
:103C5000001B51EC100B53EC112BFCF7EFFC41EC6B
:103C6000100B35F00600E7D1022D36D0042D1CD004
:103C7000062D1CBFBDEC028B70BD53EC182B51EC14
:103C8000100BFCF7E5FA94ED0A1B53EC112BFCF733
:103C9000D5FC53EC182BFCF7DBFA94ED081B53EC26
:103CA000112BFCF7CBFC41EC100B53EC182B51EC17
:103CB000100BFCF7CDFA94ED061B53EC112BFCF71F
:103CC000BDFC53EC182BFCF7C3FA94ED040B53EC3A
:103CD000102BFCF7B3FC41EC100B53EC182B51EC00
:103CE000100BFCF7B5FA94ED021B53EC112BFCF70B
:103CF000A5FC53EC182BFCF7ABFA94ED001B53EC2E
:103D0000112BFCF79BFCBDEC028B41EC100B70BD42
:103D10009FED070B10B553EC102B9FED070B51ECEB
:103D2000100BFCF70AFB41EC100B10BD000000006B
:103D30000000000000000000000000000000F03F54
:103D400010B553EC112B51EC100BFCF777FC41EC48
:103D5000100B10BD000000009FED050B10B553ECDB
:103D6000102B51EC100BFCF7E8FA41EC100B10BDD6
:103D700000000000000000009FED050B10B553ECA3
:103D8000102B51EC100BFCF763FA41EC100B10BD3B
:103D900000000000000000709FED050B10B553EC13
:103DA000102B51EC100BFCF753FA41EC100B10BD2B
:103DB000000000000000001002E008C8121F08C147
:103DC000002AFAD170477047002001E001C1121F9C
:103DD000002AFBD1704700000149086070470000CD
:103DE000340000202DE9FF4F8DB00F460546002618
:103DF00006E025280BD0DDE90F1290476D1C761CDC
:103E000028780028F5D111B0304600F0F3B900242D
:103E1000A246A1460122EC4900E0044315F8013F07
:103E2000203B02FA03F00842F7D128782A2810D064
:103E30006FF02F022878A0F13001092914D80AEB7D
:103E40008A0102EB410144F0020400EB010A6D1CFF
:103E5000F0E701CF5FEA000A03D544F40054CAF149
:103E6000000A44F002046D1C28782E2817D115F89A
:103E7000010F44F004042A280ED06FF02F02287896
:103E8000A0F1300109290AD809EB890102EB4101AF
:103E900000EB01096D1CF2E757F8049B6D1C2878B4
:103EA0006C280FD006DC4C2817D068280DD06A2863
:103EB00014D104E0742810D07A280FD10DE044F416
:103EC00000140AE044F4801401E044F440146978DA
:103ED000814202D104F580146D1C6D1C2A786E2A73
:103EE0001FD00CDC632A31D004DC002A8BD0582A86
:103EF00011D1A3E0642A68D0692A0CD165E0732A45
:103F00002ED004DC6F2A73D0702A04D19BE0752A6E
:103F10006FD0782A6ED01046DDE90F129047761CDC
:103F200050E1C4F30250022806D0032809D0042827
:103F300001CF09D0066045E101CFF117C0E900616A
:103F400040E101CF06803DE106703BE117F8040B2C
:103F50008DF8000000208DF80100EB46012003E001
:103F600057F804BB4FF0FF3061074FF0000102D457
:103F70000DE008F10101884649450FDA8045F8DB7C
:103F80001BF808100029F4D108E008F10101884667
:103F90008142FADB1BF808100029F6D1DDE90F2376
:103FA000AAEB08008146214600F039F9304400EBC5
:103FB000080604E0DDE90F121BF8010B9047B8F189
:103FC0000108F7D221464846F7E00A21C4F302531C
:103FD0004FF0000B0891022B04D001CFC117032B27
:103FE00009D00AE0FF1D27F00707F7E8020108E003
:103FF00032E01FE020E000B2C117042B01D140B233
:10400000C117031E71F1000307DA4FF0000CD0EB6B
:104010000C006CEB01012D2302E0230504D52B23BA
:104020008DF82430012303E0E30701D02023F7E7D4
:10403000984658E00A2110E010210EE010204FF0C1
:10404000000B08900CE010214FF0000B44F004042A
:104050004FF00809089103E008214FF0000B089188
:10406000C4F30253022B04D001CF0021032B06D04E
:1040700006E0FF1D27F00707F7E8020103E080B222
:10408000042B00D1C0B24FF0000823072BD5702AB3
:1040900007D0DDF820C08CF0100C5CEA0B0C05D0CA
:1040A0000EE040238DF82430012308E050EA01039C
:1040B00006D030238DF824308DF825200223984631
:1040C000DDF820C08CF0080C5CEA0B0C0BD150EA38
:1040D000010301D1630706D530238DF824304FF05A
:1040E0000108A9F10109582A04D038A20B9208AAA4
:1040F0000A920BE03AA2F9E75B46089AFCF762F8ED
:104100000B9B9B5C0A9A521E0A92137050EA0102A2
:10411000F2D10A98ADEB000000F1200B600702D548
:1041200024F4803401E04FF00109D94502DDA9EB08
:104130000B0000E0002000EB0B0141440890AAEBCB
:10414000010AE00306D4DDE90F232146504600F0C2
:1041500066F806444FF0000908E009A911F80900C3
:10416000DDE90F12904709F10109761CC145F4DB26
:10417000E0030CD5DDE90F232146504600F04FF84F
:10418000064404E0DDE90F1230209047761C0899C0
:10419000481E08900029F5DC08E00A980A99007882
:1041A000491C0A91DDE90F129047761CBBF1000112
:1041B000ABF1010BF1DC21465046DDE90F2300F0A5
:1041C0001CF806446D1C1BE609280100303132330F
:1041D0003435363738396162636465660000000043
:1041E000303132333435363738394142434445462D
:1041F0000000000030BCBDE8C08F2DE9F04104464E
:1042000000251E461746880404D405E039462020C0
:10421000B0476D1C641EF9D52846BDE8F0812DE934
:10422000F041044600251E469046C80301D53027BC
:1042300000E02027880404D505E041463846B04711
:104240006D1C641EF9D52846BDE8F0810A68531C30
:104250000B6010707047000003480449007809782B
:1042600000EB012080B27047040000200500002010
:1042700000B585B014216846FBF7DFFF02200090EF
:1042800000200190029069460248FCF7CBFF05B080
:1042900000BD00000004004800B585B01421684648
:1042A000FBF7CBFF0220009001200190002003903B
:1042B00069460248FCF7B6FF05B000BD000400489F
:1042C00010B500F06BF800BF00F04AF80028FBD1F1
:1042D00000F018F80749087000F014F80649087053
:1042E00000F010F80549087000F00CF80449087057
:1042F00010BD000005000020040000200700002081
:10430000060000202DE9F0410024144F012602216F
:104310003846FDF750F80028F9D02820FCF7B0FB0C
:1043200002213846FDF747F890B1C4F1070106FABB
:1043300001F02843C5B202213846FDF73CF80028B9
:10434000F9D1641CE4B2082CE1D32846BDE8F08121
:10435000C4F1070006FA00F08543ECE700040048CA
:1043600070B500242820FCF78BFB0B4D022128465A
:10437000FDF721F840B95020FCF782FB02212846C6
:10438000FDF719F830B1012402212846FDF713F892
:104390000028F9D1204670BD0004004810B5FFF791
:1043A0007BFF002202210548FDF70AF844F2506025
:1043B000FCF766FBBDE81040FFF75ABF0004004859
:1043C00008480178084811F0800F007806D021F0E5
:1043D000800100EB0120404200B2704700EB012059
:1043E000FAE70000050000200400002010B500F0EE
:1043F0005BF808B9FCF771FBCC2000F0ADF8BDE824
:104400001040442000F0A8B800B585B0012000900D
:1044100000200190029069464FF09040FCF702FFA7
:1044200005B000BD00B585B00120009001900020CE
:10443000029069464FF09040FCF7F4FE05B000BDD5
:1044400010B5FFF7EFFF4FF0904400220121204606
:10445000FCF7B6FF0220FCF729FB0122114620469B
:10446000FCF7AEFFFFF7D0FF0C20FCF71FFB01218C
:104470002046FCF7A0FF08B1012400E00024322010
:10448000FCF714FB204610BD70B500255FF0010459
:10449000FFF7D6FFC001641C40EA5500E4B2C5B284
:1044A000082CF5D9284670BD70B5FFF7BBFF4FF05B
:1044B0009044002201212046FCF782FF4FF4FA705D
:1044C000FCF7F4FAFFF7A0FF4620FCF7EFFA012112
:1044D0002046FCF770FF40B1002501212046FCF783
:1044E0006AFF0028F9D0284670BD0125F5E70000D5
:1044F00070B5FFF77BFFFFF7D7FF08B9FCF7EDFAC0
:10450000CC2000F029F8BE2000F026F8FFF7BCFF11
:104510000446FFF7B9FF072C05D9E143C043CCB2ED
:10452000C0B2002500E0012500EB042000B2FBF73B
:1045300073FF9FED071B53EC112BFBF789FEFBF775
:104540007CFF00B2002D01D1404200B270BD0000DE
:10455000000000000000E43F70B50546FFF762FF71
:1045600000244FF0904600BF15F0010F4FEA5505AB
:104570004FF000024FF0010130460BD0FCF720FF56
:104580000220FCF793FA012211463046FCF718FF8F
:104590003C200AE0FCF714FF3C20FCF787FA0122DC
:1045A00011463046FCF70CFF0220FCF77FFA641C32
:1045B000E4B2082CD8D370BD82B0CDE9000121F05F
:1045C000004001909DED000B02B051EC100B7047C4
:1045D000FDF7A2F800F00AF9FEF7D6F9FEF778F831
:1045E000FEF734F8FEF7BCF8FEF7DCF84EF6602470
:1045F00000F006F800F07CF82046FCF701FEF7E733
:104600001CB5FFF75DFEFFF727FE2E4C6080FFF71D
:10461000D7FEE0806846FEF72DFA0098C4F80A003D
:104620000198C4F80E00FFF763FF208104F1140025
:10463000DFED261A90ED000AB8EE401A9FED220A2F
:10464000C1EE000A80EEA11ADFED210A61EE200A18
:10465000B2EE041A60EE810AFCEEE00A10EE901A47
:10466000A180D0ED010AB8EE601AC1EE000AB1EEE9
:10467000040A20EE800ADFED170A20EE200A10EE71
:10468000100AFBF7F9FE41EC110B9FED130BFEF73F
:1046900083FC9FED131B51EC100B53EC112BFBF71C
:1046A000D7FD9FED111B53EC112BFBF746FEFBF7DB
:1046B000F6FE00EE100ABCEEC00A10EE100A2070E2
:1046C0001CBD00000800002000F07F45CDCC0C3F51
:1046D0000000C8420000803A0000000000002440B2
:1046E0000000000000E06F40000000000088C340B0
:1046F00000B51148114B8BB00179827800781B7896
:1047000005910293CDE903020D490E480988B0F9DD
:104710000000CDE900010C480DA103880B48B0F959
:10472000002006A8FEF7FCFB132206A91248FDF79D
:1047300017FE0BB000BD0000120000200800002092
:104740000C000020100000200A0000200E000020B5
:1047500041542453463D2530347825303478253073
:104760003478253034782530327825303278253049
:104770003278253032780D00E800002000B52DEDAC
:10478000048B83B041EC190BFCF75AF841EC180B81
:1047900018EE100A18EE901A8DED008B002818BF45
:1047A0000120084320F00040C0F17F6000F1E040AC
:1047B000C00F14D019EE101A19EE900A8DED009B5F
:1047C000002918BF0121084320F00040C0F17F609C
:1047D00000F1E040C00F04BF0120FFF7FDFA51ECEB
:1047E000180B03B0BDEC048B00BD000010B5FCF746
:1047F00025F9BDE81040022201490248FCF76EBCD1
:104800001C00002038000020000000000000000014
:104810000102030406070809A0860100400D0300F9
:10482000801A060000350C0040420F0080841E00F4
:1048300000093D0000127A000024F40000366E01E9
:104840000048E801006CDC020000000001020304E3
:10485000000000000000F03F000000000000F83FF2
:1048600000000000000000000000004003B8E23F2C
:10487000000000000000000006D0CF43EBFD4C3EDE
:10488000033333333333E33FFFAB6FDBB66DDB3FD3
:104890004D268F515555D53F01411DA96074D13F1B
:1048A00065DBC9934A86CD3FEF4E454A287ECA3F15
:1048B0003E5555555555C53F93BDBE166CC166BF97
:1048C0002CDE25AF6A56113FF16BD2C541BDBBBE90
:1048D000D0A4BE726937663E0000000000000000F0
:1048E000004900080000002038000000B83D000822
:1048F000384900083800002030050000C83D000895
:104900000000520000000000000000000000000055
:104910000000000000000000000000000000000097
:104920000000000010000000010000000000000076
:0849300000093D000000000039
:040000050800018D61
:00000001FF
